

Microchip MPLAB XC8 Assembler V2.31 build 20201012212115 
                                                                                               Fri Oct 29 13:25:50 2021

Microchip MPLAB XC8 C Compiler v2.31 (Free license) build 20201012212115 Og1 
     1                           	processor	16F18346
     2                           	pagewidth 120
     3                           	opt	flic
     4                           	psect	idataBANK0,global,class=CODE,delta=2,noexec
     5                           	psect	stringtext1,global,class=STRCODE,delta=2,noexec
     6                           	psect	cinit,global,class=CODE,merge=1,delta=2
     7                           	psect	bssBANK0,global,class=BANK0,space=1,delta=1,noexec
     8                           	psect	dataBANK0,global,class=BANK0,space=1,delta=1,noexec
     9                           	psect	cstackCOMMON,global,class=COMMON,space=1,delta=1,noexec
    10                           	psect	maintext,global,class=CODE,merge=1,split=1,delta=2
    11                           	psect	text1,local,class=CODE,merge=1,delta=2
    12                           	psect	text2,local,class=CODE,merge=1,delta=2
    13                           	psect	text3,local,class=CODE,merge=1,delta=2
    14                           	psect	text4,local,class=CODE,merge=1,delta=2
    15                           	psect	text5,local,class=CODE,merge=1,delta=2
    16                           	psect	text6,local,class=CODE,merge=1,delta=2
    17                           	psect	text7,local,class=CODE,merge=1,delta=2
    18                           	psect	text8,local,class=CODE,merge=1,delta=2
    19                           	psect	text9,local,class=CODE,merge=1,delta=2
    20                           	psect	config,global,abs,ovrld,class=CONFIG,space=4,delta=2,noexec
    21                           	dabs	1,0x7E,2
    22  0000                     
    23                           ; Version 2.30
    24                           ; Generated 15/09/2020 GMT
    25                           ; 
    26                           ; Copyright © 2020, Microchip Technology Inc. and its subsidiaries ("Microchip")
    27                           ; All rights reserved.
    28                           ; 
    29                           ; This software is developed by Microchip Technology Inc. and its subsidiaries ("Microch
      +                          ip").
    30                           ; 
    31                           ; Redistribution and use in source and binary forms, with or without modification, are
    32                           ; permitted provided that the following conditions are met:
    33                           ; 
    34                           ;     1. Redistributions of source code must retain the above copyright notice, this lis
      +                          t of
    35                           ;        conditions and the following disclaimer.
    36                           ; 
    37                           ;     2. Redistributions in binary form must reproduce the above copyright notice, this 
      +                          list
    38                           ;        of conditions and the following disclaimer in the documentation and/or other
    39                           ;        materials provided with the distribution. Publication is not required when
    40                           ;        this file is used in an embedded application.
    41                           ; 
    42                           ;     3. Microchip's name may not be used to endorse or promote products derived from th
      +                          is
    43                           ;        software without specific prior written permission.
    44                           ; 
    45                           ; THIS SOFTWARE IS PROVIDED BY MICROCHIP "AS IS" AND ANY EXPRESS OR IMPLIED WARRANTIES,
    46                           ; INCLUDING, BUT NOT LIMITED TO, THE IMPLIED WARRANTIES OF MERCHANTABILITY AND FITNESS F
      +                          OR
    47                           ; PURPOSE ARE DISCLAIMED.  IN NO EVENT SHALL MICROCHIP BE LIABLE FOR ANY DIRECT, INDIREC
      +                          T,
    48                           ; INCIDENTAL, SPECIAL, EXEMPLARY, OR CONSEQUENTIAL DAMAGES (INCLUDING BUT NOT LIMITED TO
    49                           ; PROCUREMENT OF SUBSTITUTE GOODS OR SERVICES; LOSS OF USE, DATA OR PROFITS; OR BUSINESS
    50                           ; INTERRUPTION) HOWSOEVER CAUSED AND ON ANY THEORY OF LIABILITY, WHETHER IN CONTRACT, ST
      +                          RICT
    51                           ; LIABILITY, OR TORT (INCLUDING NEGLIGENCE OR OTHERWISE) ARISING IN ANY WAY OUT OF THE U
      +                          SE OF
    52                           ; THIS SOFTWARE, EVEN IF ADVISED OF THE POSSIBILITY OF SUCH DAMAGE.
    53                           ; 
    54                           ; 
    55                           ; Code-generator required, PIC16F18346 Definitions
    56                           ; 
    57                           ; SFR Addresses
    58  0000                     	;# 
    59  0001                     	;# 
    60  0002                     	;# 
    61  0003                     	;# 
    62  0004                     	;# 
    63  0005                     	;# 
    64  0006                     	;# 
    65  0007                     	;# 
    66  0008                     	;# 
    67  0009                     	;# 
    68  000A                     	;# 
    69  000B                     	;# 
    70  000C                     	;# 
    71  000D                     	;# 
    72  000E                     	;# 
    73  0010                     	;# 
    74  0011                     	;# 
    75  0012                     	;# 
    76  0013                     	;# 
    77  0014                     	;# 
    78  0015                     	;# 
    79  0015                     	;# 
    80  0016                     	;# 
    81  0016                     	;# 
    82  0017                     	;# 
    83  0018                     	;# 
    84  0019                     	;# 
    85  0019                     	;# 
    86  001A                     	;# 
    87  001B                     	;# 
    88  001C                     	;# 
    89  001D                     	;# 
    90  001E                     	;# 
    91  001F                     	;# 
    92  008C                     	;# 
    93  008D                     	;# 
    94  008E                     	;# 
    95  0090                     	;# 
    96  0091                     	;# 
    97  0092                     	;# 
    98  0093                     	;# 
    99  0094                     	;# 
   100  0097                     	;# 
   101  009B                     	;# 
   102  009B                     	;# 
   103  009C                     	;# 
   104  009D                     	;# 
   105  009E                     	;# 
   106  009F                     	;# 
   107  010C                     	;# 
   108  010D                     	;# 
   109  010E                     	;# 
   110  0111                     	;# 
   111  0112                     	;# 
   112  0113                     	;# 
   113  0114                     	;# 
   114  0115                     	;# 
   115  0116                     	;# 
   116  0117                     	;# 
   117  0118                     	;# 
   118  0119                     	;# 
   119  018C                     	;# 
   120  018D                     	;# 
   121  018E                     	;# 
   122  0197                     	;# 
   123  0199                     	;# 
   124  0199                     	;# 
   125  0199                     	;# 
   126  019A                     	;# 
   127  019A                     	;# 
   128  019A                     	;# 
   129  019B                     	;# 
   130  019B                     	;# 
   131  019B                     	;# 
   132  019B                     	;# 
   133  019B                     	;# 
   134  019C                     	;# 
   135  019C                     	;# 
   136  019C                     	;# 
   137  019D                     	;# 
   138  019D                     	;# 
   139  019D                     	;# 
   140  019E                     	;# 
   141  019E                     	;# 
   142  019E                     	;# 
   143  019F                     	;# 
   144  019F                     	;# 
   145  019F                     	;# 
   146  019F                     	;# 
   147  019F                     	;# 
   148  020C                     	;# 
   149  020D                     	;# 
   150  020E                     	;# 
   151  0211                     	;# 
   152  0211                     	;# 
   153  0212                     	;# 
   154  0212                     	;# 
   155  0213                     	;# 
   156  0213                     	;# 
   157  0214                     	;# 
   158  0214                     	;# 
   159  0215                     	;# 
   160  0215                     	;# 
   161  0215                     	;# 
   162  0215                     	;# 
   163  0216                     	;# 
   164  0216                     	;# 
   165  0217                     	;# 
   166  0217                     	;# 
   167  0219                     	;# 
   168  021A                     	;# 
   169  021B                     	;# 
   170  021C                     	;# 
   171  021D                     	;# 
   172  021D                     	;# 
   173  021E                     	;# 
   174  021F                     	;# 
   175  028C                     	;# 
   176  028D                     	;# 
   177  028E                     	;# 
   178  0291                     	;# 
   179  0291                     	;# 
   180  0292                     	;# 
   181  0293                     	;# 
   182  0294                     	;# 
   183  0295                     	;# 
   184  0295                     	;# 
   185  0296                     	;# 
   186  0297                     	;# 
   187  0298                     	;# 
   188  029F                     	;# 
   189  030C                     	;# 
   190  030D                     	;# 
   191  030E                     	;# 
   192  0311                     	;# 
   193  0311                     	;# 
   194  0312                     	;# 
   195  0313                     	;# 
   196  0314                     	;# 
   197  0315                     	;# 
   198  0315                     	;# 
   199  0316                     	;# 
   200  0317                     	;# 
   201  0318                     	;# 
   202  038C                     	;# 
   203  038D                     	;# 
   204  038E                     	;# 
   205  0391                     	;# 
   206  0392                     	;# 
   207  0393                     	;# 
   208  0394                     	;# 
   209  0395                     	;# 
   210  0396                     	;# 
   211  0397                     	;# 
   212  0398                     	;# 
   213  0399                     	;# 
   214  039A                     	;# 
   215  039C                     	;# 
   216  039D                     	;# 
   217  039E                     	;# 
   218  039F                     	;# 
   219  0411                     	;# 
   220  0411                     	;# 
   221  0412                     	;# 
   222  0413                     	;# 
   223  0414                     	;# 
   224  0415                     	;# 
   225  0416                     	;# 
   226  0417                     	;# 
   227  0418                     	;# 
   228  0418                     	;# 
   229  0419                     	;# 
   230  041A                     	;# 
   231  041B                     	;# 
   232  041C                     	;# 
   233  041D                     	;# 
   234  041E                     	;# 
   235  041F                     	;# 
   236  0498                     	;# 
   237  0498                     	;# 
   238  0499                     	;# 
   239  049A                     	;# 
   240  049B                     	;# 
   241  049B                     	;# 
   242  049C                     	;# 
   243  049D                     	;# 
   244  049E                     	;# 
   245  049F                     	;# 
   246  0617                     	;# 
   247  0618                     	;# 
   248  0619                     	;# 
   249  0619                     	;# 
   250  061A                     	;# 
   251  061B                     	;# 
   252  061C                     	;# 
   253  061C                     	;# 
   254  061F                     	;# 
   255  0691                     	;# 
   256  0692                     	;# 
   257  0693                     	;# 
   258  0694                     	;# 
   259  0695                     	;# 
   260  0696                     	;# 
   261  0697                     	;# 
   262  0698                     	;# 
   263  0699                     	;# 
   264  0711                     	;# 
   265  0712                     	;# 
   266  0713                     	;# 
   267  0714                     	;# 
   268  0715                     	;# 
   269  0716                     	;# 
   270  0717                     	;# 
   271  0718                     	;# 
   272  0719                     	;# 
   273  0891                     	;# 
   274  0891                     	;# 
   275  0891                     	;# 
   276  0891                     	;# 
   277  0891                     	;# 
   278  0891                     	;# 
   279  0892                     	;# 
   280  0892                     	;# 
   281  0892                     	;# 
   282  0893                     	;# 
   283  0893                     	;# 
   284  0893                     	;# 
   285  0893                     	;# 
   286  0893                     	;# 
   287  0893                     	;# 
   288  0894                     	;# 
   289  0894                     	;# 
   290  0894                     	;# 
   291  0895                     	;# 
   292  0895                     	;# 
   293  0895                     	;# 
   294  0896                     	;# 
   295  0896                     	;# 
   296  0896                     	;# 
   297  089B                     	;# 
   298  0911                     	;# 
   299  0912                     	;# 
   300  0913                     	;# 
   301  0914                     	;# 
   302  0915                     	;# 
   303  0916                     	;# 
   304  0918                     	;# 
   305  0919                     	;# 
   306  091A                     	;# 
   307  091B                     	;# 
   308  091C                     	;# 
   309  091D                     	;# 
   310  091E                     	;# 
   311  091F                     	;# 
   312  0E0F                     	;# 
   313  0E10                     	;# 
   314  0E11                     	;# 
   315  0E12                     	;# 
   316  0E13                     	;# 
   317  0E14                     	;# 
   318  0E15                     	;# 
   319  0E16                     	;# 
   320  0E17                     	;# 
   321  0E18                     	;# 
   322  0E19                     	;# 
   323  0E1A                     	;# 
   324  0E1B                     	;# 
   325  0E1C                     	;# 
   326  0E1D                     	;# 
   327  0E1E                     	;# 
   328  0E1F                     	;# 
   329  0E20                     	;# 
   330  0E21                     	;# 
   331  0E22                     	;# 
   332  0E24                     	;# 
   333  0E25                     	;# 
   334  0E28                     	;# 
   335  0E29                     	;# 
   336  0E2A                     	;# 
   337  0E2B                     	;# 
   338  0E2C                     	;# 
   339  0E2D                     	;# 
   340  0E2E                     	;# 
   341  0E2F                     	;# 
   342  0E90                     	;# 
   343  0E91                     	;# 
   344  0E92                     	;# 
   345  0E94                     	;# 
   346  0E95                     	;# 
   347  0E9C                     	;# 
   348  0E9D                     	;# 
   349  0E9E                     	;# 
   350  0E9F                     	;# 
   351  0EA0                     	;# 
   352  0EA1                     	;# 
   353  0EA2                     	;# 
   354  0EA3                     	;# 
   355  0EA4                     	;# 
   356  0EA5                     	;# 
   357  0EA6                     	;# 
   358  0EA7                     	;# 
   359  0F0F                     	;# 
   360  0F10                     	;# 
   361  0F11                     	;# 
   362  0F12                     	;# 
   363  0F13                     	;# 
   364  0F14                     	;# 
   365  0F15                     	;# 
   366  0F16                     	;# 
   367  0F17                     	;# 
   368  0F18                     	;# 
   369  0F19                     	;# 
   370  0F1A                     	;# 
   371  0F1B                     	;# 
   372  0F1C                     	;# 
   373  0F1D                     	;# 
   374  0F1E                     	;# 
   375  0F1F                     	;# 
   376  0F20                     	;# 
   377  0F21                     	;# 
   378  0F22                     	;# 
   379  0F23                     	;# 
   380  0F24                     	;# 
   381  0F25                     	;# 
   382  0F26                     	;# 
   383  0F27                     	;# 
   384  0F28                     	;# 
   385  0F29                     	;# 
   386  0F2A                     	;# 
   387  0F2B                     	;# 
   388  0F2C                     	;# 
   389  0F2D                     	;# 
   390  0F2E                     	;# 
   391  0F2F                     	;# 
   392  0F30                     	;# 
   393  0F31                     	;# 
   394  0F32                     	;# 
   395  0F33                     	;# 
   396  0F34                     	;# 
   397  0F35                     	;# 
   398  0F36                     	;# 
   399  0F37                     	;# 
   400  0FE4                     	;# 
   401  0FE5                     	;# 
   402  0FE6                     	;# 
   403  0FE7                     	;# 
   404  0FE8                     	;# 
   405  0FE9                     	;# 
   406  0FEA                     	;# 
   407  0FEB                     	;# 
   408  0FED                     	;# 
   409  0FEE                     	;# 
   410  0FEF                     	;# 
   411  0000                     	;# 
   412  0001                     	;# 
   413  0002                     	;# 
   414  0003                     	;# 
   415  0004                     	;# 
   416  0005                     	;# 
   417  0006                     	;# 
   418  0007                     	;# 
   419  0008                     	;# 
   420  0009                     	;# 
   421  000A                     	;# 
   422  000B                     	;# 
   423  000C                     	;# 
   424  000D                     	;# 
   425  000E                     	;# 
   426  0010                     	;# 
   427  0011                     	;# 
   428  0012                     	;# 
   429  0013                     	;# 
   430  0014                     	;# 
   431  0015                     	;# 
   432  0015                     	;# 
   433  0016                     	;# 
   434  0016                     	;# 
   435  0017                     	;# 
   436  0018                     	;# 
   437  0019                     	;# 
   438  0019                     	;# 
   439  001A                     	;# 
   440  001B                     	;# 
   441  001C                     	;# 
   442  001D                     	;# 
   443  001E                     	;# 
   444  001F                     	;# 
   445  008C                     	;# 
   446  008D                     	;# 
   447  008E                     	;# 
   448  0090                     	;# 
   449  0091                     	;# 
   450  0092                     	;# 
   451  0093                     	;# 
   452  0094                     	;# 
   453  0097                     	;# 
   454  009B                     	;# 
   455  009B                     	;# 
   456  009C                     	;# 
   457  009D                     	;# 
   458  009E                     	;# 
   459  009F                     	;# 
   460  010C                     	;# 
   461  010D                     	;# 
   462  010E                     	;# 
   463  0111                     	;# 
   464  0112                     	;# 
   465  0113                     	;# 
   466  0114                     	;# 
   467  0115                     	;# 
   468  0116                     	;# 
   469  0117                     	;# 
   470  0118                     	;# 
   471  0119                     	;# 
   472  018C                     	;# 
   473  018D                     	;# 
   474  018E                     	;# 
   475  0197                     	;# 
   476  0199                     	;# 
   477  0199                     	;# 
   478  0199                     	;# 
   479  019A                     	;# 
   480  019A                     	;# 
   481  019A                     	;# 
   482  019B                     	;# 
   483  019B                     	;# 
   484  019B                     	;# 
   485  019B                     	;# 
   486  019B                     	;# 
   487  019C                     	;# 
   488  019C                     	;# 
   489  019C                     	;# 
   490  019D                     	;# 
   491  019D                     	;# 
   492  019D                     	;# 
   493  019E                     	;# 
   494  019E                     	;# 
   495  019E                     	;# 
   496  019F                     	;# 
   497  019F                     	;# 
   498  019F                     	;# 
   499  019F                     	;# 
   500  019F                     	;# 
   501  020C                     	;# 
   502  020D                     	;# 
   503  020E                     	;# 
   504  0211                     	;# 
   505  0211                     	;# 
   506  0212                     	;# 
   507  0212                     	;# 
   508  0213                     	;# 
   509  0213                     	;# 
   510  0214                     	;# 
   511  0214                     	;# 
   512  0215                     	;# 
   513  0215                     	;# 
   514  0215                     	;# 
   515  0215                     	;# 
   516  0216                     	;# 
   517  0216                     	;# 
   518  0217                     	;# 
   519  0217                     	;# 
   520  0219                     	;# 
   521  021A                     	;# 
   522  021B                     	;# 
   523  021C                     	;# 
   524  021D                     	;# 
   525  021D                     	;# 
   526  021E                     	;# 
   527  021F                     	;# 
   528  028C                     	;# 
   529  028D                     	;# 
   530  028E                     	;# 
   531  0291                     	;# 
   532  0291                     	;# 
   533  0292                     	;# 
   534  0293                     	;# 
   535  0294                     	;# 
   536  0295                     	;# 
   537  0295                     	;# 
   538  0296                     	;# 
   539  0297                     	;# 
   540  0298                     	;# 
   541  029F                     	;# 
   542  030C                     	;# 
   543  030D                     	;# 
   544  030E                     	;# 
   545  0311                     	;# 
   546  0311                     	;# 
   547  0312                     	;# 
   548  0313                     	;# 
   549  0314                     	;# 
   550  0315                     	;# 
   551  0315                     	;# 
   552  0316                     	;# 
   553  0317                     	;# 
   554  0318                     	;# 
   555  038C                     	;# 
   556  038D                     	;# 
   557  038E                     	;# 
   558  0391                     	;# 
   559  0392                     	;# 
   560  0393                     	;# 
   561  0394                     	;# 
   562  0395                     	;# 
   563  0396                     	;# 
   564  0397                     	;# 
   565  0398                     	;# 
   566  0399                     	;# 
   567  039A                     	;# 
   568  039C                     	;# 
   569  039D                     	;# 
   570  039E                     	;# 
   571  039F                     	;# 
   572  0411                     	;# 
   573  0411                     	;# 
   574  0412                     	;# 
   575  0413                     	;# 
   576  0414                     	;# 
   577  0415                     	;# 
   578  0416                     	;# 
   579  0417                     	;# 
   580  0418                     	;# 
   581  0418                     	;# 
   582  0419                     	;# 
   583  041A                     	;# 
   584  041B                     	;# 
   585  041C                     	;# 
   586  041D                     	;# 
   587  041E                     	;# 
   588  041F                     	;# 
   589  0498                     	;# 
   590  0498                     	;# 
   591  0499                     	;# 
   592  049A                     	;# 
   593  049B                     	;# 
   594  049B                     	;# 
   595  049C                     	;# 
   596  049D                     	;# 
   597  049E                     	;# 
   598  049F                     	;# 
   599  0617                     	;# 
   600  0618                     	;# 
   601  0619                     	;# 
   602  0619                     	;# 
   603  061A                     	;# 
   604  061B                     	;# 
   605  061C                     	;# 
   606  061C                     	;# 
   607  061F                     	;# 
   608  0691                     	;# 
   609  0692                     	;# 
   610  0693                     	;# 
   611  0694                     	;# 
   612  0695                     	;# 
   613  0696                     	;# 
   614  0697                     	;# 
   615  0698                     	;# 
   616  0699                     	;# 
   617  0711                     	;# 
   618  0712                     	;# 
   619  0713                     	;# 
   620  0714                     	;# 
   621  0715                     	;# 
   622  0716                     	;# 
   623  0717                     	;# 
   624  0718                     	;# 
   625  0719                     	;# 
   626  0891                     	;# 
   627  0891                     	;# 
   628  0891                     	;# 
   629  0891                     	;# 
   630  0891                     	;# 
   631  0891                     	;# 
   632  0892                     	;# 
   633  0892                     	;# 
   634  0892                     	;# 
   635  0893                     	;# 
   636  0893                     	;# 
   637  0893                     	;# 
   638  0893                     	;# 
   639  0893                     	;# 
   640  0893                     	;# 
   641  0894                     	;# 
   642  0894                     	;# 
   643  0894                     	;# 
   644  0895                     	;# 
   645  0895                     	;# 
   646  0895                     	;# 
   647  0896                     	;# 
   648  0896                     	;# 
   649  0896                     	;# 
   650  089B                     	;# 
   651  0911                     	;# 
   652  0912                     	;# 
   653  0913                     	;# 
   654  0914                     	;# 
   655  0915                     	;# 
   656  0916                     	;# 
   657  0918                     	;# 
   658  0919                     	;# 
   659  091A                     	;# 
   660  091B                     	;# 
   661  091C                     	;# 
   662  091D                     	;# 
   663  091E                     	;# 
   664  091F                     	;# 
   665  0E0F                     	;# 
   666  0E10                     	;# 
   667  0E11                     	;# 
   668  0E12                     	;# 
   669  0E13                     	;# 
   670  0E14                     	;# 
   671  0E15                     	;# 
   672  0E16                     	;# 
   673  0E17                     	;# 
   674  0E18                     	;# 
   675  0E19                     	;# 
   676  0E1A                     	;# 
   677  0E1B                     	;# 
   678  0E1C                     	;# 
   679  0E1D                     	;# 
   680  0E1E                     	;# 
   681  0E1F                     	;# 
   682  0E20                     	;# 
   683  0E21                     	;# 
   684  0E22                     	;# 
   685  0E24                     	;# 
   686  0E25                     	;# 
   687  0E28                     	;# 
   688  0E29                     	;# 
   689  0E2A                     	;# 
   690  0E2B                     	;# 
   691  0E2C                     	;# 
   692  0E2D                     	;# 
   693  0E2E                     	;# 
   694  0E2F                     	;# 
   695  0E90                     	;# 
   696  0E91                     	;# 
   697  0E92                     	;# 
   698  0E94                     	;# 
   699  0E95                     	;# 
   700  0E9C                     	;# 
   701  0E9D                     	;# 
   702  0E9E                     	;# 
   703  0E9F                     	;# 
   704  0EA0                     	;# 
   705  0EA1                     	;# 
   706  0EA2                     	;# 
   707  0EA3                     	;# 
   708  0EA4                     	;# 
   709  0EA5                     	;# 
   710  0EA6                     	;# 
   711  0EA7                     	;# 
   712  0F0F                     	;# 
   713  0F10                     	;# 
   714  0F11                     	;# 
   715  0F12                     	;# 
   716  0F13                     	;# 
   717  0F14                     	;# 
   718  0F15                     	;# 
   719  0F16                     	;# 
   720  0F17                     	;# 
   721  0F18                     	;# 
   722  0F19                     	;# 
   723  0F1A                     	;# 
   724  0F1B                     	;# 
   725  0F1C                     	;# 
   726  0F1D                     	;# 
   727  0F1E                     	;# 
   728  0F1F                     	;# 
   729  0F20                     	;# 
   730  0F21                     	;# 
   731  0F22                     	;# 
   732  0F23                     	;# 
   733  0F24                     	;# 
   734  0F25                     	;# 
   735  0F26                     	;# 
   736  0F27                     	;# 
   737  0F28                     	;# 
   738  0F29                     	;# 
   739  0F2A                     	;# 
   740  0F2B                     	;# 
   741  0F2C                     	;# 
   742  0F2D                     	;# 
   743  0F2E                     	;# 
   744  0F2F                     	;# 
   745  0F30                     	;# 
   746  0F31                     	;# 
   747  0F32                     	;# 
   748  0F33                     	;# 
   749  0F34                     	;# 
   750  0F35                     	;# 
   751  0F36                     	;# 
   752  0F37                     	;# 
   753  0FE4                     	;# 
   754  0FE5                     	;# 
   755  0FE6                     	;# 
   756  0FE7                     	;# 
   757  0FE8                     	;# 
   758  0FE9                     	;# 
   759  0FEA                     	;# 
   760  0FEB                     	;# 
   761  0FED                     	;# 
   762  0FEE                     	;# 
   763  0FEF                     	;# 
   764  0000                     	;# 
   765  0001                     	;# 
   766  0002                     	;# 
   767  0003                     	;# 
   768  0004                     	;# 
   769  0005                     	;# 
   770  0006                     	;# 
   771  0007                     	;# 
   772  0008                     	;# 
   773  0009                     	;# 
   774  000A                     	;# 
   775  000B                     	;# 
   776  000C                     	;# 
   777  000D                     	;# 
   778  000E                     	;# 
   779  0010                     	;# 
   780  0011                     	;# 
   781  0012                     	;# 
   782  0013                     	;# 
   783  0014                     	;# 
   784  0015                     	;# 
   785  0015                     	;# 
   786  0016                     	;# 
   787  0016                     	;# 
   788  0017                     	;# 
   789  0018                     	;# 
   790  0019                     	;# 
   791  0019                     	;# 
   792  001A                     	;# 
   793  001B                     	;# 
   794  001C                     	;# 
   795  001D                     	;# 
   796  001E                     	;# 
   797  001F                     	;# 
   798  008C                     	;# 
   799  008D                     	;# 
   800  008E                     	;# 
   801  0090                     	;# 
   802  0091                     	;# 
   803  0092                     	;# 
   804  0093                     	;# 
   805  0094                     	;# 
   806  0097                     	;# 
   807  009B                     	;# 
   808  009B                     	;# 
   809  009C                     	;# 
   810  009D                     	;# 
   811  009E                     	;# 
   812  009F                     	;# 
   813  010C                     	;# 
   814  010D                     	;# 
   815  010E                     	;# 
   816  0111                     	;# 
   817  0112                     	;# 
   818  0113                     	;# 
   819  0114                     	;# 
   820  0115                     	;# 
   821  0116                     	;# 
   822  0117                     	;# 
   823  0118                     	;# 
   824  0119                     	;# 
   825  018C                     	;# 
   826  018D                     	;# 
   827  018E                     	;# 
   828  0197                     	;# 
   829  0199                     	;# 
   830  0199                     	;# 
   831  0199                     	;# 
   832  019A                     	;# 
   833  019A                     	;# 
   834  019A                     	;# 
   835  019B                     	;# 
   836  019B                     	;# 
   837  019B                     	;# 
   838  019B                     	;# 
   839  019B                     	;# 
   840  019C                     	;# 
   841  019C                     	;# 
   842  019C                     	;# 
   843  019D                     	;# 
   844  019D                     	;# 
   845  019D                     	;# 
   846  019E                     	;# 
   847  019E                     	;# 
   848  019E                     	;# 
   849  019F                     	;# 
   850  019F                     	;# 
   851  019F                     	;# 
   852  019F                     	;# 
   853  019F                     	;# 
   854  020C                     	;# 
   855  020D                     	;# 
   856  020E                     	;# 
   857  0211                     	;# 
   858  0211                     	;# 
   859  0212                     	;# 
   860  0212                     	;# 
   861  0213                     	;# 
   862  0213                     	;# 
   863  0214                     	;# 
   864  0214                     	;# 
   865  0215                     	;# 
   866  0215                     	;# 
   867  0215                     	;# 
   868  0215                     	;# 
   869  0216                     	;# 
   870  0216                     	;# 
   871  0217                     	;# 
   872  0217                     	;# 
   873  0219                     	;# 
   874  021A                     	;# 
   875  021B                     	;# 
   876  021C                     	;# 
   877  021D                     	;# 
   878  021D                     	;# 
   879  021E                     	;# 
   880  021F                     	;# 
   881  028C                     	;# 
   882  028D                     	;# 
   883  028E                     	;# 
   884  0291                     	;# 
   885  0291                     	;# 
   886  0292                     	;# 
   887  0293                     	;# 
   888  0294                     	;# 
   889  0295                     	;# 
   890  0295                     	;# 
   891  0296                     	;# 
   892  0297                     	;# 
   893  0298                     	;# 
   894  029F                     	;# 
   895  030C                     	;# 
   896  030D                     	;# 
   897  030E                     	;# 
   898  0311                     	;# 
   899  0311                     	;# 
   900  0312                     	;# 
   901  0313                     	;# 
   902  0314                     	;# 
   903  0315                     	;# 
   904  0315                     	;# 
   905  0316                     	;# 
   906  0317                     	;# 
   907  0318                     	;# 
   908  038C                     	;# 
   909  038D                     	;# 
   910  038E                     	;# 
   911  0391                     	;# 
   912  0392                     	;# 
   913  0393                     	;# 
   914  0394                     	;# 
   915  0395                     	;# 
   916  0396                     	;# 
   917  0397                     	;# 
   918  0398                     	;# 
   919  0399                     	;# 
   920  039A                     	;# 
   921  039C                     	;# 
   922  039D                     	;# 
   923  039E                     	;# 
   924  039F                     	;# 
   925  0411                     	;# 
   926  0411                     	;# 
   927  0412                     	;# 
   928  0413                     	;# 
   929  0414                     	;# 
   930  0415                     	;# 
   931  0416                     	;# 
   932  0417                     	;# 
   933  0418                     	;# 
   934  0418                     	;# 
   935  0419                     	;# 
   936  041A                     	;# 
   937  041B                     	;# 
   938  041C                     	;# 
   939  041D                     	;# 
   940  041E                     	;# 
   941  041F                     	;# 
   942  0498                     	;# 
   943  0498                     	;# 
   944  0499                     	;# 
   945  049A                     	;# 
   946  049B                     	;# 
   947  049B                     	;# 
   948  049C                     	;# 
   949  049D                     	;# 
   950  049E                     	;# 
   951  049F                     	;# 
   952  0617                     	;# 
   953  0618                     	;# 
   954  0619                     	;# 
   955  0619                     	;# 
   956  061A                     	;# 
   957  061B                     	;# 
   958  061C                     	;# 
   959  061C                     	;# 
   960  061F                     	;# 
   961  0691                     	;# 
   962  0692                     	;# 
   963  0693                     	;# 
   964  0694                     	;# 
   965  0695                     	;# 
   966  0696                     	;# 
   967  0697                     	;# 
   968  0698                     	;# 
   969  0699                     	;# 
   970  0711                     	;# 
   971  0712                     	;# 
   972  0713                     	;# 
   973  0714                     	;# 
   974  0715                     	;# 
   975  0716                     	;# 
   976  0717                     	;# 
   977  0718                     	;# 
   978  0719                     	;# 
   979  0891                     	;# 
   980  0891                     	;# 
   981  0891                     	;# 
   982  0891                     	;# 
   983  0891                     	;# 
   984  0891                     	;# 
   985  0892                     	;# 
   986  0892                     	;# 
   987  0892                     	;# 
   988  0893                     	;# 
   989  0893                     	;# 
   990  0893                     	;# 
   991  0893                     	;# 
   992  0893                     	;# 
   993  0893                     	;# 
   994  0894                     	;# 
   995  0894                     	;# 
   996  0894                     	;# 
   997  0895                     	;# 
   998  0895                     	;# 
   999  0895                     	;# 
  1000  0896                     	;# 
  1001  0896                     	;# 
  1002  0896                     	;# 
  1003  089B                     	;# 
  1004  0911                     	;# 
  1005  0912                     	;# 
  1006  0913                     	;# 
  1007  0914                     	;# 
  1008  0915                     	;# 
  1009  0916                     	;# 
  1010  0918                     	;# 
  1011  0919                     	;# 
  1012  091A                     	;# 
  1013  091B                     	;# 
  1014  091C                     	;# 
  1015  091D                     	;# 
  1016  091E                     	;# 
  1017  091F                     	;# 
  1018  0E0F                     	;# 
  1019  0E10                     	;# 
  1020  0E11                     	;# 
  1021  0E12                     	;# 
  1022  0E13                     	;# 
  1023  0E14                     	;# 
  1024  0E15                     	;# 
  1025  0E16                     	;# 
  1026  0E17                     	;# 
  1027  0E18                     	;# 
  1028  0E19                     	;# 
  1029  0E1A                     	;# 
  1030  0E1B                     	;# 
  1031  0E1C                     	;# 
  1032  0E1D                     	;# 
  1033  0E1E                     	;# 
  1034  0E1F                     	;# 
  1035  0E20                     	;# 
  1036  0E21                     	;# 
  1037  0E22                     	;# 
  1038  0E24                     	;# 
  1039  0E25                     	;# 
  1040  0E28                     	;# 
  1041  0E29                     	;# 
  1042  0E2A                     	;# 
  1043  0E2B                     	;# 
  1044  0E2C                     	;# 
  1045  0E2D                     	;# 
  1046  0E2E                     	;# 
  1047  0E2F                     	;# 
  1048  0E90                     	;# 
  1049  0E91                     	;# 
  1050  0E92                     	;# 
  1051  0E94                     	;# 
  1052  0E95                     	;# 
  1053  0E9C                     	;# 
  1054  0E9D                     	;# 
  1055  0E9E                     	;# 
  1056  0E9F                     	;# 
  1057  0EA0                     	;# 
  1058  0EA1                     	;# 
  1059  0EA2                     	;# 
  1060  0EA3                     	;# 
  1061  0EA4                     	;# 
  1062  0EA5                     	;# 
  1063  0EA6                     	;# 
  1064  0EA7                     	;# 
  1065  0F0F                     	;# 
  1066  0F10                     	;# 
  1067  0F11                     	;# 
  1068  0F12                     	;# 
  1069  0F13                     	;# 
  1070  0F14                     	;# 
  1071  0F15                     	;# 
  1072  0F16                     	;# 
  1073  0F17                     	;# 
  1074  0F18                     	;# 
  1075  0F19                     	;# 
  1076  0F1A                     	;# 
  1077  0F1B                     	;# 
  1078  0F1C                     	;# 
  1079  0F1D                     	;# 
  1080  0F1E                     	;# 
  1081  0F1F                     	;# 
  1082  0F20                     	;# 
  1083  0F21                     	;# 
  1084  0F22                     	;# 
  1085  0F23                     	;# 
  1086  0F24                     	;# 
  1087  0F25                     	;# 
  1088  0F26                     	;# 
  1089  0F27                     	;# 
  1090  0F28                     	;# 
  1091  0F29                     	;# 
  1092  0F2A                     	;# 
  1093  0F2B                     	;# 
  1094  0F2C                     	;# 
  1095  0F2D                     	;# 
  1096  0F2E                     	;# 
  1097  0F2F                     	;# 
  1098  0F30                     	;# 
  1099  0F31                     	;# 
  1100  0F32                     	;# 
  1101  0F33                     	;# 
  1102  0F34                     	;# 
  1103  0F35                     	;# 
  1104  0F36                     	;# 
  1105  0F37                     	;# 
  1106  0FE4                     	;# 
  1107  0FE5                     	;# 
  1108  0FE6                     	;# 
  1109  0FE7                     	;# 
  1110  0FE8                     	;# 
  1111  0FE9                     	;# 
  1112  0FEA                     	;# 
  1113  0FEB                     	;# 
  1114  0FED                     	;# 
  1115  0FEE                     	;# 
  1116  0FEF                     	;# 
  1117  0000                     	;# 
  1118  0001                     	;# 
  1119  0002                     	;# 
  1120  0003                     	;# 
  1121  0004                     	;# 
  1122  0005                     	;# 
  1123  0006                     	;# 
  1124  0007                     	;# 
  1125  0008                     	;# 
  1126  0009                     	;# 
  1127  000A                     	;# 
  1128  000B                     	;# 
  1129  000C                     	;# 
  1130  000D                     	;# 
  1131  000E                     	;# 
  1132  0010                     	;# 
  1133  0011                     	;# 
  1134  0012                     	;# 
  1135  0013                     	;# 
  1136  0014                     	;# 
  1137  0015                     	;# 
  1138  0015                     	;# 
  1139  0016                     	;# 
  1140  0016                     	;# 
  1141  0017                     	;# 
  1142  0018                     	;# 
  1143  0019                     	;# 
  1144  0019                     	;# 
  1145  001A                     	;# 
  1146  001B                     	;# 
  1147  001C                     	;# 
  1148  001D                     	;# 
  1149  001E                     	;# 
  1150  001F                     	;# 
  1151  008C                     	;# 
  1152  008D                     	;# 
  1153  008E                     	;# 
  1154  0090                     	;# 
  1155  0091                     	;# 
  1156  0092                     	;# 
  1157  0093                     	;# 
  1158  0094                     	;# 
  1159  0097                     	;# 
  1160  009B                     	;# 
  1161  009B                     	;# 
  1162  009C                     	;# 
  1163  009D                     	;# 
  1164  009E                     	;# 
  1165  009F                     	;# 
  1166  010C                     	;# 
  1167  010D                     	;# 
  1168  010E                     	;# 
  1169  0111                     	;# 
  1170  0112                     	;# 
  1171  0113                     	;# 
  1172  0114                     	;# 
  1173  0115                     	;# 
  1174  0116                     	;# 
  1175  0117                     	;# 
  1176  0118                     	;# 
  1177  0119                     	;# 
  1178  018C                     	;# 
  1179  018D                     	;# 
  1180  018E                     	;# 
  1181  0197                     	;# 
  1182  0199                     	;# 
  1183  0199                     	;# 
  1184  0199                     	;# 
  1185  019A                     	;# 
  1186  019A                     	;# 
  1187  019A                     	;# 
  1188  019B                     	;# 
  1189  019B                     	;# 
  1190  019B                     	;# 
  1191  019B                     	;# 
  1192  019B                     	;# 
  1193  019C                     	;# 
  1194  019C                     	;# 
  1195  019C                     	;# 
  1196  019D                     	;# 
  1197  019D                     	;# 
  1198  019D                     	;# 
  1199  019E                     	;# 
  1200  019E                     	;# 
  1201  019E                     	;# 
  1202  019F                     	;# 
  1203  019F                     	;# 
  1204  019F                     	;# 
  1205  019F                     	;# 
  1206  019F                     	;# 
  1207  020C                     	;# 
  1208  020D                     	;# 
  1209  020E                     	;# 
  1210  0211                     	;# 
  1211  0211                     	;# 
  1212  0212                     	;# 
  1213  0212                     	;# 
  1214  0213                     	;# 
  1215  0213                     	;# 
  1216  0214                     	;# 
  1217  0214                     	;# 
  1218  0215                     	;# 
  1219  0215                     	;# 
  1220  0215                     	;# 
  1221  0215                     	;# 
  1222  0216                     	;# 
  1223  0216                     	;# 
  1224  0217                     	;# 
  1225  0217                     	;# 
  1226  0219                     	;# 
  1227  021A                     	;# 
  1228  021B                     	;# 
  1229  021C                     	;# 
  1230  021D                     	;# 
  1231  021D                     	;# 
  1232  021E                     	;# 
  1233  021F                     	;# 
  1234  028C                     	;# 
  1235  028D                     	;# 
  1236  028E                     	;# 
  1237  0291                     	;# 
  1238  0291                     	;# 
  1239  0292                     	;# 
  1240  0293                     	;# 
  1241  0294                     	;# 
  1242  0295                     	;# 
  1243  0295                     	;# 
  1244  0296                     	;# 
  1245  0297                     	;# 
  1246  0298                     	;# 
  1247  029F                     	;# 
  1248  030C                     	;# 
  1249  030D                     	;# 
  1250  030E                     	;# 
  1251  0311                     	;# 
  1252  0311                     	;# 
  1253  0312                     	;# 
  1254  0313                     	;# 
  1255  0314                     	;# 
  1256  0315                     	;# 
  1257  0315                     	;# 
  1258  0316                     	;# 
  1259  0317                     	;# 
  1260  0318                     	;# 
  1261  038C                     	;# 
  1262  038D                     	;# 
  1263  038E                     	;# 
  1264  0391                     	;# 
  1265  0392                     	;# 
  1266  0393                     	;# 
  1267  0394                     	;# 
  1268  0395                     	;# 
  1269  0396                     	;# 
  1270  0397                     	;# 
  1271  0398                     	;# 
  1272  0399                     	;# 
  1273  039A                     	;# 
  1274  039C                     	;# 
  1275  039D                     	;# 
  1276  039E                     	;# 
  1277  039F                     	;# 
  1278  0411                     	;# 
  1279  0411                     	;# 
  1280  0412                     	;# 
  1281  0413                     	;# 
  1282  0414                     	;# 
  1283  0415                     	;# 
  1284  0416                     	;# 
  1285  0417                     	;# 
  1286  0418                     	;# 
  1287  0418                     	;# 
  1288  0419                     	;# 
  1289  041A                     	;# 
  1290  041B                     	;# 
  1291  041C                     	;# 
  1292  041D                     	;# 
  1293  041E                     	;# 
  1294  041F                     	;# 
  1295  0498                     	;# 
  1296  0498                     	;# 
  1297  0499                     	;# 
  1298  049A                     	;# 
  1299  049B                     	;# 
  1300  049B                     	;# 
  1301  049C                     	;# 
  1302  049D                     	;# 
  1303  049E                     	;# 
  1304  049F                     	;# 
  1305  0617                     	;# 
  1306  0618                     	;# 
  1307  0619                     	;# 
  1308  0619                     	;# 
  1309  061A                     	;# 
  1310  061B                     	;# 
  1311  061C                     	;# 
  1312  061C                     	;# 
  1313  061F                     	;# 
  1314  0691                     	;# 
  1315  0692                     	;# 
  1316  0693                     	;# 
  1317  0694                     	;# 
  1318  0695                     	;# 
  1319  0696                     	;# 
  1320  0697                     	;# 
  1321  0698                     	;# 
  1322  0699                     	;# 
  1323  0711                     	;# 
  1324  0712                     	;# 
  1325  0713                     	;# 
  1326  0714                     	;# 
  1327  0715                     	;# 
  1328  0716                     	;# 
  1329  0717                     	;# 
  1330  0718                     	;# 
  1331  0719                     	;# 
  1332  0891                     	;# 
  1333  0891                     	;# 
  1334  0891                     	;# 
  1335  0891                     	;# 
  1336  0891                     	;# 
  1337  0891                     	;# 
  1338  0892                     	;# 
  1339  0892                     	;# 
  1340  0892                     	;# 
  1341  0893                     	;# 
  1342  0893                     	;# 
  1343  0893                     	;# 
  1344  0893                     	;# 
  1345  0893                     	;# 
  1346  0893                     	;# 
  1347  0894                     	;# 
  1348  0894                     	;# 
  1349  0894                     	;# 
  1350  0895                     	;# 
  1351  0895                     	;# 
  1352  0895                     	;# 
  1353  0896                     	;# 
  1354  0896                     	;# 
  1355  0896                     	;# 
  1356  089B                     	;# 
  1357  0911                     	;# 
  1358  0912                     	;# 
  1359  0913                     	;# 
  1360  0914                     	;# 
  1361  0915                     	;# 
  1362  0916                     	;# 
  1363  0918                     	;# 
  1364  0919                     	;# 
  1365  091A                     	;# 
  1366  091B                     	;# 
  1367  091C                     	;# 
  1368  091D                     	;# 
  1369  091E                     	;# 
  1370  091F                     	;# 
  1371  0E0F                     	;# 
  1372  0E10                     	;# 
  1373  0E11                     	;# 
  1374  0E12                     	;# 
  1375  0E13                     	;# 
  1376  0E14                     	;# 
  1377  0E15                     	;# 
  1378  0E16                     	;# 
  1379  0E17                     	;# 
  1380  0E18                     	;# 
  1381  0E19                     	;# 
  1382  0E1A                     	;# 
  1383  0E1B                     	;# 
  1384  0E1C                     	;# 
  1385  0E1D                     	;# 
  1386  0E1E                     	;# 
  1387  0E1F                     	;# 
  1388  0E20                     	;# 
  1389  0E21                     	;# 
  1390  0E22                     	;# 
  1391  0E24                     	;# 
  1392  0E25                     	;# 
  1393  0E28                     	;# 
  1394  0E29                     	;# 
  1395  0E2A                     	;# 
  1396  0E2B                     	;# 
  1397  0E2C                     	;# 
  1398  0E2D                     	;# 
  1399  0E2E                     	;# 
  1400  0E2F                     	;# 
  1401  0E90                     	;# 
  1402  0E91                     	;# 
  1403  0E92                     	;# 
  1404  0E94                     	;# 
  1405  0E95                     	;# 
  1406  0E9C                     	;# 
  1407  0E9D                     	;# 
  1408  0E9E                     	;# 
  1409  0E9F                     	;# 
  1410  0EA0                     	;# 
  1411  0EA1                     	;# 
  1412  0EA2                     	;# 
  1413  0EA3                     	;# 
  1414  0EA4                     	;# 
  1415  0EA5                     	;# 
  1416  0EA6                     	;# 
  1417  0EA7                     	;# 
  1418  0F0F                     	;# 
  1419  0F10                     	;# 
  1420  0F11                     	;# 
  1421  0F12                     	;# 
  1422  0F13                     	;# 
  1423  0F14                     	;# 
  1424  0F15                     	;# 
  1425  0F16                     	;# 
  1426  0F17                     	;# 
  1427  0F18                     	;# 
  1428  0F19                     	;# 
  1429  0F1A                     	;# 
  1430  0F1B                     	;# 
  1431  0F1C                     	;# 
  1432  0F1D                     	;# 
  1433  0F1E                     	;# 
  1434  0F1F                     	;# 
  1435  0F20                     	;# 
  1436  0F21                     	;# 
  1437  0F22                     	;# 
  1438  0F23                     	;# 
  1439  0F24                     	;# 
  1440  0F25                     	;# 
  1441  0F26                     	;# 
  1442  0F27                     	;# 
  1443  0F28                     	;# 
  1444  0F29                     	;# 
  1445  0F2A                     	;# 
  1446  0F2B                     	;# 
  1447  0F2C                     	;# 
  1448  0F2D                     	;# 
  1449  0F2E                     	;# 
  1450  0F2F                     	;# 
  1451  0F30                     	;# 
  1452  0F31                     	;# 
  1453  0F32                     	;# 
  1454  0F33                     	;# 
  1455  0F34                     	;# 
  1456  0F35                     	;# 
  1457  0F36                     	;# 
  1458  0F37                     	;# 
  1459  0FE4                     	;# 
  1460  0FE5                     	;# 
  1461  0FE6                     	;# 
  1462  0FE7                     	;# 
  1463  0FE8                     	;# 
  1464  0FE9                     	;# 
  1465  0FEA                     	;# 
  1466  0FEB                     	;# 
  1467  0FED                     	;# 
  1468  0FEE                     	;# 
  1469  0FEF                     	;# 
  1470  0000                     	;# 
  1471  0001                     	;# 
  1472  0002                     	;# 
  1473  0003                     	;# 
  1474  0004                     	;# 
  1475  0005                     	;# 
  1476  0006                     	;# 
  1477  0007                     	;# 
  1478  0008                     	;# 
  1479  0009                     	;# 
  1480  000A                     	;# 
  1481  000B                     	;# 
  1482  000C                     	;# 
  1483  000D                     	;# 
  1484  000E                     	;# 
  1485  0010                     	;# 
  1486  0011                     	;# 
  1487  0012                     	;# 
  1488  0013                     	;# 
  1489  0014                     	;# 
  1490  0015                     	;# 
  1491  0015                     	;# 
  1492  0016                     	;# 
  1493  0016                     	;# 
  1494  0017                     	;# 
  1495  0018                     	;# 
  1496  0019                     	;# 
  1497  0019                     	;# 
  1498  001A                     	;# 
  1499  001B                     	;# 
  1500  001C                     	;# 
  1501  001D                     	;# 
  1502  001E                     	;# 
  1503  001F                     	;# 
  1504  008C                     	;# 
  1505  008D                     	;# 
  1506  008E                     	;# 
  1507  0090                     	;# 
  1508  0091                     	;# 
  1509  0092                     	;# 
  1510  0093                     	;# 
  1511  0094                     	;# 
  1512  0097                     	;# 
  1513  009B                     	;# 
  1514  009B                     	;# 
  1515  009C                     	;# 
  1516  009D                     	;# 
  1517  009E                     	;# 
  1518  009F                     	;# 
  1519  010C                     	;# 
  1520  010D                     	;# 
  1521  010E                     	;# 
  1522  0111                     	;# 
  1523  0112                     	;# 
  1524  0113                     	;# 
  1525  0114                     	;# 
  1526  0115                     	;# 
  1527  0116                     	;# 
  1528  0117                     	;# 
  1529  0118                     	;# 
  1530  0119                     	;# 
  1531  018C                     	;# 
  1532  018D                     	;# 
  1533  018E                     	;# 
  1534  0197                     	;# 
  1535  0199                     	;# 
  1536  0199                     	;# 
  1537  0199                     	;# 
  1538  019A                     	;# 
  1539  019A                     	;# 
  1540  019A                     	;# 
  1541  019B                     	;# 
  1542  019B                     	;# 
  1543  019B                     	;# 
  1544  019B                     	;# 
  1545  019B                     	;# 
  1546  019C                     	;# 
  1547  019C                     	;# 
  1548  019C                     	;# 
  1549  019D                     	;# 
  1550  019D                     	;# 
  1551  019D                     	;# 
  1552  019E                     	;# 
  1553  019E                     	;# 
  1554  019E                     	;# 
  1555  019F                     	;# 
  1556  019F                     	;# 
  1557  019F                     	;# 
  1558  019F                     	;# 
  1559  019F                     	;# 
  1560  020C                     	;# 
  1561  020D                     	;# 
  1562  020E                     	;# 
  1563  0211                     	;# 
  1564  0211                     	;# 
  1565  0212                     	;# 
  1566  0212                     	;# 
  1567  0213                     	;# 
  1568  0213                     	;# 
  1569  0214                     	;# 
  1570  0214                     	;# 
  1571  0215                     	;# 
  1572  0215                     	;# 
  1573  0215                     	;# 
  1574  0215                     	;# 
  1575  0216                     	;# 
  1576  0216                     	;# 
  1577  0217                     	;# 
  1578  0217                     	;# 
  1579  0219                     	;# 
  1580  021A                     	;# 
  1581  021B                     	;# 
  1582  021C                     	;# 
  1583  021D                     	;# 
  1584  021D                     	;# 
  1585  021E                     	;# 
  1586  021F                     	;# 
  1587  028C                     	;# 
  1588  028D                     	;# 
  1589  028E                     	;# 
  1590  0291                     	;# 
  1591  0291                     	;# 
  1592  0292                     	;# 
  1593  0293                     	;# 
  1594  0294                     	;# 
  1595  0295                     	;# 
  1596  0295                     	;# 
  1597  0296                     	;# 
  1598  0297                     	;# 
  1599  0298                     	;# 
  1600  029F                     	;# 
  1601  030C                     	;# 
  1602  030D                     	;# 
  1603  030E                     	;# 
  1604  0311                     	;# 
  1605  0311                     	;# 
  1606  0312                     	;# 
  1607  0313                     	;# 
  1608  0314                     	;# 
  1609  0315                     	;# 
  1610  0315                     	;# 
  1611  0316                     	;# 
  1612  0317                     	;# 
  1613  0318                     	;# 
  1614  038C                     	;# 
  1615  038D                     	;# 
  1616  038E                     	;# 
  1617  0391                     	;# 
  1618  0392                     	;# 
  1619  0393                     	;# 
  1620  0394                     	;# 
  1621  0395                     	;# 
  1622  0396                     	;# 
  1623  0397                     	;# 
  1624  0398                     	;# 
  1625  0399                     	;# 
  1626  039A                     	;# 
  1627  039C                     	;# 
  1628  039D                     	;# 
  1629  039E                     	;# 
  1630  039F                     	;# 
  1631  0411                     	;# 
  1632  0411                     	;# 
  1633  0412                     	;# 
  1634  0413                     	;# 
  1635  0414                     	;# 
  1636  0415                     	;# 
  1637  0416                     	;# 
  1638  0417                     	;# 
  1639  0418                     	;# 
  1640  0418                     	;# 
  1641  0419                     	;# 
  1642  041A                     	;# 
  1643  041B                     	;# 
  1644  041C                     	;# 
  1645  041D                     	;# 
  1646  041E                     	;# 
  1647  041F                     	;# 
  1648  0498                     	;# 
  1649  0498                     	;# 
  1650  0499                     	;# 
  1651  049A                     	;# 
  1652  049B                     	;# 
  1653  049B                     	;# 
  1654  049C                     	;# 
  1655  049D                     	;# 
  1656  049E                     	;# 
  1657  049F                     	;# 
  1658  0617                     	;# 
  1659  0618                     	;# 
  1660  0619                     	;# 
  1661  0619                     	;# 
  1662  061A                     	;# 
  1663  061B                     	;# 
  1664  061C                     	;# 
  1665  061C                     	;# 
  1666  061F                     	;# 
  1667  0691                     	;# 
  1668  0692                     	;# 
  1669  0693                     	;# 
  1670  0694                     	;# 
  1671  0695                     	;# 
  1672  0696                     	;# 
  1673  0697                     	;# 
  1674  0698                     	;# 
  1675  0699                     	;# 
  1676  0711                     	;# 
  1677  0712                     	;# 
  1678  0713                     	;# 
  1679  0714                     	;# 
  1680  0715                     	;# 
  1681  0716                     	;# 
  1682  0717                     	;# 
  1683  0718                     	;# 
  1684  0719                     	;# 
  1685  0891                     	;# 
  1686  0891                     	;# 
  1687  0891                     	;# 
  1688  0891                     	;# 
  1689  0891                     	;# 
  1690  0891                     	;# 
  1691  0892                     	;# 
  1692  0892                     	;# 
  1693  0892                     	;# 
  1694  0893                     	;# 
  1695  0893                     	;# 
  1696  0893                     	;# 
  1697  0893                     	;# 
  1698  0893                     	;# 
  1699  0893                     	;# 
  1700  0894                     	;# 
  1701  0894                     	;# 
  1702  0894                     	;# 
  1703  0895                     	;# 
  1704  0895                     	;# 
  1705  0895                     	;# 
  1706  0896                     	;# 
  1707  0896                     	;# 
  1708  0896                     	;# 
  1709  089B                     	;# 
  1710  0911                     	;# 
  1711  0912                     	;# 
  1712  0913                     	;# 
  1713  0914                     	;# 
  1714  0915                     	;# 
  1715  0916                     	;# 
  1716  0918                     	;# 
  1717  0919                     	;# 
  1718  091A                     	;# 
  1719  091B                     	;# 
  1720  091C                     	;# 
  1721  091D                     	;# 
  1722  091E                     	;# 
  1723  091F                     	;# 
  1724  0E0F                     	;# 
  1725  0E10                     	;# 
  1726  0E11                     	;# 
  1727  0E12                     	;# 
  1728  0E13                     	;# 
  1729  0E14                     	;# 
  1730  0E15                     	;# 
  1731  0E16                     	;# 
  1732  0E17                     	;# 
  1733  0E18                     	;# 
  1734  0E19                     	;# 
  1735  0E1A                     	;# 
  1736  0E1B                     	;# 
  1737  0E1C                     	;# 
  1738  0E1D                     	;# 
  1739  0E1E                     	;# 
  1740  0E1F                     	;# 
  1741  0E20                     	;# 
  1742  0E21                     	;# 
  1743  0E22                     	;# 
  1744  0E24                     	;# 
  1745  0E25                     	;# 
  1746  0E28                     	;# 
  1747  0E29                     	;# 
  1748  0E2A                     	;# 
  1749  0E2B                     	;# 
  1750  0E2C                     	;# 
  1751  0E2D                     	;# 
  1752  0E2E                     	;# 
  1753  0E2F                     	;# 
  1754  0E90                     	;# 
  1755  0E91                     	;# 
  1756  0E92                     	;# 
  1757  0E94                     	;# 
  1758  0E95                     	;# 
  1759  0E9C                     	;# 
  1760  0E9D                     	;# 
  1761  0E9E                     	;# 
  1762  0E9F                     	;# 
  1763  0EA0                     	;# 
  1764  0EA1                     	;# 
  1765  0EA2                     	;# 
  1766  0EA3                     	;# 
  1767  0EA4                     	;# 
  1768  0EA5                     	;# 
  1769  0EA6                     	;# 
  1770  0EA7                     	;# 
  1771  0F0F                     	;# 
  1772  0F10                     	;# 
  1773  0F11                     	;# 
  1774  0F12                     	;# 
  1775  0F13                     	;# 
  1776  0F14                     	;# 
  1777  0F15                     	;# 
  1778  0F16                     	;# 
  1779  0F17                     	;# 
  1780  0F18                     	;# 
  1781  0F19                     	;# 
  1782  0F1A                     	;# 
  1783  0F1B                     	;# 
  1784  0F1C                     	;# 
  1785  0F1D                     	;# 
  1786  0F1E                     	;# 
  1787  0F1F                     	;# 
  1788  0F20                     	;# 
  1789  0F21                     	;# 
  1790  0F22                     	;# 
  1791  0F23                     	;# 
  1792  0F24                     	;# 
  1793  0F25                     	;# 
  1794  0F26                     	;# 
  1795  0F27                     	;# 
  1796  0F28                     	;# 
  1797  0F29                     	;# 
  1798  0F2A                     	;# 
  1799  0F2B                     	;# 
  1800  0F2C                     	;# 
  1801  0F2D                     	;# 
  1802  0F2E                     	;# 
  1803  0F2F                     	;# 
  1804  0F30                     	;# 
  1805  0F31                     	;# 
  1806  0F32                     	;# 
  1807  0F33                     	;# 
  1808  0F34                     	;# 
  1809  0F35                     	;# 
  1810  0F36                     	;# 
  1811  0F37                     	;# 
  1812  0FE4                     	;# 
  1813  0FE5                     	;# 
  1814  0FE6                     	;# 
  1815  0FE7                     	;# 
  1816  0FE8                     	;# 
  1817  0FE9                     	;# 
  1818  0FEA                     	;# 
  1819  0FEB                     	;# 
  1820  0FED                     	;# 
  1821  0FEE                     	;# 
  1822  0FEF                     	;# 
  1823                           
  1824                           	psect	idataBANK0
  1825  0699                     __pidataBANK0:
  1826                           
  1827                           ;initializer for main@F7126
  1828  0699  3451               	retlw	81
  1829  069A  3411               	retlw	17
  1830  069B  3411               	retlw	17
  1831  069C  3411               	retlw	17
  1832                           
  1833                           	psect	stringtext1
  1834  0800                     __pstringtext1:
  1835  0800                     _spi1_configuration:
  1836  0800  3401               	retlw	1
  1837  0801  3440               	retlw	64
  1838  0802  3401               	retlw	1
  1839  0803  3400               	retlw	0
  1840  0804                     __end_of_spi1_configuration:
  1841  0011                     _PIR1bits	set	17
  1842  008E                     _TRISCbits	set	142
  1843  0097                     _WDTCON	set	151
  1844  008E                     _TRISC	set	142
  1845  008D                     _TRISB	set	141
  1846  008C                     _TRISA	set	140
  1847  010D                     _LATBbits	set	269
  1848  010E                     _LATCbits	set	270
  1849  010E                     _LATC	set	270
  1850  010D                     _LATB	set	269
  1851  010C                     _LATA	set	268
  1852  018C                     _ANSELA	set	396
  1853  018D                     _ANSELB	set	397
  1854  018E                     _ANSELC	set	398
  1855  0211                     _SSP1BUF	set	529
  1856  0216                     _SSP1CON2	set	534
  1857  0215                     _SSP1CON1bits	set	533
  1858  0212                     _SSP1ADD	set	530
  1859  0215                     _SSP1CON1	set	533
  1860  0214                     _SSP1STAT	set	532
  1861  0214                     _SSP1STATbits	set	532
  1862  020E                     _WPUC	set	526
  1863  020C                     _WPUA	set	524
  1864  020D                     _WPUB	set	525
  1865  028E                     _ODCONC	set	654
  1866  028D                     _ODCONB	set	653
  1867  028C                     _ODCONA	set	652
  1868  030E                     _SLRCONC	set	782
  1869  030D                     _SLRCONB	set	781
  1870  030C                     _SLRCONA	set	780
  1871  038E                     _INLVLC	set	910
  1872  038D                     _INLVLB	set	909
  1873  038C                     _INLVLA	set	908
  1874  0916                     _PMD5	set	2326
  1875  0915                     _PMD4	set	2325
  1876  0914                     _PMD3	set	2324
  1877  0913                     _PMD2	set	2323
  1878  0912                     _PMD1	set	2322
  1879  0911                     _PMD0	set	2321
  1880  091E                     _OSCTUNE	set	2334
  1881  091F                     _OSCFRQ	set	2335
  1882  091D                     _OSCEN	set	2333
  1883  091B                     _OSCCON3	set	2331
  1884  0919                     _OSCCON1	set	2329
  1885  0E21                     _SSP1DATPPS	set	3617
  1886  0E20                     _SSP1CLKPPS	set	3616
  1887  0EA2                     _RC2PPS	set	3746
  1888  0E9C                     _RB4PPS	set	3740
  1889                           
  1890                           	psect	cinit
  1891  07EB                     start_initialization:	
  1892                           ; #config settings
  1893                           
  1894  07EB                     __initialization:
  1895                           
  1896                           ; Initialize objects allocated to BANK0
  1897  07EB  3186  2699  3187   	fcall	__pidataBANK0	;fetch initializer
  1898  07EE  00A0               	movwf	__pdataBANK0& (0+127)
  1899  07EF  3186  269A  3187   	fcall	__pidataBANK0+1	;fetch initializer
  1900  07F2  00A1               	movwf	(__pdataBANK0+1)& (0+127)
  1901  07F3  3186  269B  3187   	fcall	__pidataBANK0+2	;fetch initializer
  1902  07F6  00A2               	movwf	(__pdataBANK0+2)& (0+127)
  1903  07F7  3186  269C  3187   	fcall	__pidataBANK0+3	;fetch initializer
  1904  07FA  00A3               	movwf	(__pdataBANK0+3)& (0+127)
  1905                           
  1906                           ; Clear objects allocated to BANK0
  1907  07FB  01A4               	clrf	__pbssBANK0& (0+127)
  1908  07FC  01A5               	clrf	(__pbssBANK0+1)& (0+127)
  1909  07FD                     end_of_initialization:	
  1910                           ;End of C runtime variable initialization code
  1911                           
  1912  07FD                     __end_of__initialization:
  1913  07FD  0020               	movlb	0
  1914  07FE  3187  2F85         	ljmp	_main	;jump to C main() function
  1915                           
  1916                           	psect	bssBANK0
  1917  0024                     __pbssBANK0:
  1918  0024                     main@F7124:
  1919  0024                     	ds	2
  1920                           
  1921                           	psect	dataBANK0
  1922  0020                     __pdataBANK0:
  1923  0020                     main@F7126:
  1924  0020                     	ds	4
  1925                           
  1926                           	psect	cstackCOMMON
  1927  0070                     __pcstackCOMMON:
  1928  0070                     ?_PMD_Initialize:
  1929  0070                     ??_PMD_Initialize:	
  1930                           ; 1 bytes @ 0x0
  1931                           
  1932  0070                     ?_SPI1_Initialize:	
  1933                           ; 1 bytes @ 0x0
  1934                           
  1935  0070                     ??_SPI1_Initialize:	
  1936                           ; 1 bytes @ 0x0
  1937                           
  1938  0070                     ?_OSCILLATOR_Initialize:	
  1939                           ; 1 bytes @ 0x0
  1940                           
  1941  0070                     ??_OSCILLATOR_Initialize:	
  1942                           ; 1 bytes @ 0x0
  1943                           
  1944  0070                     ?_WDT_Initialize:	
  1945                           ; 1 bytes @ 0x0
  1946                           
  1947  0070                     ??_WDT_Initialize:	
  1948                           ; 1 bytes @ 0x0
  1949                           
  1950  0070                     ?_SPI1_Open:	
  1951                           ; 1 bytes @ 0x0
  1952                           
  1953  0070                     ??_SPI1_Open:	
  1954                           ; 1 bytes @ 0x0
  1955                           
  1956  0070                     ?_SPI1_WriteByte:	
  1957                           ; 1 bytes @ 0x0
  1958                           
  1959  0070                     ??_SPI1_WriteByte:	
  1960                           ; 1 bytes @ 0x0
  1961                           
  1962  0070                     ?_PIN_MANAGER_Initialize:	
  1963                           ; 1 bytes @ 0x0
  1964                           
  1965  0070                     ??_PIN_MANAGER_Initialize:	
  1966                           ; 1 bytes @ 0x0
  1967                           
  1968  0070                     ?_SYSTEM_Initialize:	
  1969                           ; 1 bytes @ 0x0
  1970                           
  1971  0070                     ??_SYSTEM_Initialize:	
  1972                           ; 1 bytes @ 0x0
  1973                           
  1974  0070                     ?_main:	
  1975                           ; 1 bytes @ 0x0
  1976                           
  1977  0070                     SPI1_WriteByte@byte:	
  1978                           ; 1 bytes @ 0x0
  1979                           
  1980                           
  1981                           ; 1 bytes @ 0x0
  1982  0070                     	ds	1
  1983  0071                     ?_L6470_sendSPI_Data:
  1984  0071                     L6470_sendSPI_Data@datanum:	
  1985                           ; 1 bytes @ 0x1
  1986                           
  1987                           
  1988                           ; 1 bytes @ 0x1
  1989  0071                     	ds	1
  1990  0072                     ??_L6470_sendSPI_Data:
  1991                           
  1992                           ; 1 bytes @ 0x2
  1993  0072                     	ds	1
  1994  0073                     L6470_sendSPI_Data@data:
  1995  0073                     SPI1_Open@spi1UniqueConfiguration:	
  1996                           ; 1 bytes @ 0x3
  1997                           
  1998                           
  1999                           ; 1 bytes @ 0x3
  2000  0073                     	ds	1
  2001  0074                     L6470_sendSPI_Data@bytesWritten:
  2002                           
  2003                           ; 1 bytes @ 0x4
  2004  0074                     	ds	1
  2005  0075                     ??_main:
  2006                           
  2007                           ; 1 bytes @ 0x5
  2008  0075                     	ds	2
  2009  0077                     main@cmd_run:
  2010                           
  2011                           ; 4 bytes @ 0x7
  2012  0077                     	ds	4
  2013  007B                     main@buf2:
  2014                           
  2015                           ; 2 bytes @ 0xB
  2016  007B                     	ds	2
  2017                           
  2018                           	psect	maintext
  2019  0785                     __pmaintext:	
  2020 ;;
  2021 ;;Main: autosize = 0, tempsize = 2, incstack = 0, save=0
  2022 ;;
  2023 ;; *************** function _main *****************
  2024 ;; Defined at:
  2025 ;;		line 50 in file "main.c"
  2026 ;; Parameters:    Size  Location     Type
  2027 ;;		None
  2028 ;; Auto vars:     Size  Location     Type
  2029 ;;  cmd_run         4    7[COMMON] unsigned char [4]
  2030 ;;  buf2            2   11[COMMON] unsigned char [2]
  2031 ;; Return value:  Size  Location     Type
  2032 ;;                  1    wreg      void 
  2033 ;; Registers used:
  2034 ;;		wreg, fsr0l, fsr0h, fsr1l, fsr1h, status,2, status,0, pclath, cstack
  2035 ;; Tracked objects:
  2036 ;;		On entry : B1F/0
  2037 ;;		On exit  : 0/0
  2038 ;;		Unchanged: 0/0
  2039 ;; Data sizes:     COMMON   BANK0   BANK1   BANK2   BANK3   BANK4   BANK5   BANK6   BANK7   BANK8   BANK9  BANK10  BANK1
      +1  BANK12  BANK13  BANK14  BANK15  BANK16  BANK17  BANK18  BANK19  BANK20  BANK21  BANK22  BANK23  BANK24  BANK25
  2040 ;;      Params:         0       0       0       0       0       0       0       0       0       0       0       0       
      +0       0       0       0       0       0       0       0       0       0       0       0       0       0       0
  2041 ;;      Locals:         6       0       0       0       0       0       0       0       0       0       0       0       
      +0       0       0       0       0       0       0       0       0       0       0       0       0       0       0
  2042 ;;      Temps:          2       0       0       0       0       0       0       0       0       0       0       0       
      +0       0       0       0       0       0       0       0       0       0       0       0       0       0       0
  2043 ;;      Totals:         8       0       0       0       0       0       0       0       0       0       0       0       
      +0       0       0       0       0       0       0       0       0       0       0       0       0       0       0
  2044 ;;Total ram usage:        8 bytes
  2045 ;; Hardware stack levels required when called:    2
  2046 ;; This function calls:
  2047 ;;		_L6470_sendSPI_Data
  2048 ;;		_SPI1_Open
  2049 ;;		_SYSTEM_Initialize
  2050 ;; This function is called by:
  2051 ;;		Startup code after reset
  2052 ;; This function uses a non-reentrant model
  2053 ;;
  2054                           
  2055                           
  2056                           ;psect for function _main
  2057  0785                     _main:
  2058  0785                     l1056:	
  2059                           ;incstack = 0
  2060                           ; Regs used in _main: [wreg-fsr1h+status,2+status,0+pclath+cstack]
  2061                           
  2062                           
  2063                           ;main.c: 53:     SYSTEM_Initialize();
  2064  0785  3186  26B3  3187   	fcall	_SYSTEM_Initialize
  2065  0788                     l1058:
  2066                           
  2067                           ;main.c: 69:     _delay((unsigned long)((500)*(8000000/4000.0)));
  2068  0788  3006               	movlw	6
  2069  0789  00F6               	movwf	??_main+1
  2070  078A  3013               	movlw	19
  2071  078B  00F5               	movwf	??_main
  2072  078C  30AE               	movlw	174
  2073  078D                     u207:
  2074  078D  0B89               	decfsz	9,f
  2075  078E  2F8D               	goto	u207
  2076  078F  0BF5               	decfsz	??_main,f
  2077  0790  2F8D               	goto	u207
  2078  0791  0BF6               	decfsz	??_main+1,f
  2079  0792  2F8D               	goto	u207
  2080  0793                     l1060:
  2081  0793  0022               	movlb	2	; select bank2
  2082  0794  178E               	bsf	14,7	;volatile
  2083  0795                     l1062:
  2084                           
  2085                           ;main.c: 71:     if(SPI1_Open(SPI1_DEFAULT))
  2086  0795  3000               	movlw	0
  2087  0796  3187  2734  3187   	fcall	_SPI1_Open
  2088  0799  3A00               	xorlw	0
  2089  079A  1903               	skipnz
  2090  079B  2F9D               	goto	u171
  2091  079C  2F9E               	goto	u170
  2092  079D                     u171:
  2093  079D  2FD1               	goto	l1082
  2094  079E                     u170:
  2095  079E                     l1064:
  2096                           
  2097                           ;main.c: 72:     {;main.c: 73:         uint8_t buf2[2]={0x00,0x00};
  2098  079E  01FB               	clrf	main@buf2
  2099  079F  01FC               	clrf	main@buf2+1
  2100  07A0                     l1066:
  2101                           
  2102                           ;main.c: 74:         buf2[0]=0x09; buf2[1]=0x30;
  2103  07A0  3009               	movlw	9
  2104  07A1  00F5               	movwf	??_main
  2105  07A2  0875               	movf	??_main,w
  2106  07A3  00FB               	movwf	main@buf2
  2107  07A4                     l1068:
  2108  07A4  3030               	movlw	48
  2109  07A5  00F5               	movwf	??_main
  2110  07A6  0875               	movf	??_main,w
  2111  07A7  00FC               	movwf	main@buf2+1
  2112  07A8                     l1070:
  2113                           
  2114                           ;main.c: 75:         L6470_sendSPI_Data(buf2,sizeof(buf2));
  2115  07A8  3002               	movlw	2
  2116  07A9  00F5               	movwf	??_main
  2117  07AA  0875               	movf	??_main,w
  2118  07AB  00F1               	movwf	L6470_sendSPI_Data@datanum
  2119  07AC  307B               	movlw	(low (main@buf2| 0))& (0+255)
  2120  07AD  3186  26D9  3187   	fcall	_L6470_sendSPI_Data
  2121  07B0                     l1072:
  2122                           
  2123                           ;main.c: 76:         buf2[0]=0x0A; buf2[1]=0xFF;
  2124  07B0  300A               	movlw	10
  2125  07B1  00F5               	movwf	??_main
  2126  07B2  0875               	movf	??_main,w
  2127  07B3  00FB               	movwf	main@buf2
  2128  07B4                     l1074:
  2129  07B4  30FF               	movlw	255
  2130  07B5  00F5               	movwf	??_main
  2131  07B6  0875               	movf	??_main,w
  2132  07B7  00FC               	movwf	main@buf2+1
  2133  07B8                     l1076:
  2134                           
  2135                           ;main.c: 77:         L6470_sendSPI_Data(buf2,sizeof(buf2));
  2136  07B8  3002               	movlw	2
  2137  07B9  00F5               	movwf	??_main
  2138  07BA  0875               	movf	??_main,w
  2139  07BB  00F1               	movwf	L6470_sendSPI_Data@datanum
  2140  07BC  307B               	movlw	(low (main@buf2| 0))& (0+255)
  2141  07BD  3186  26D9  3187   	fcall	_L6470_sendSPI_Data
  2142  07C0                     l1078:
  2143                           
  2144                           ;main.c: 79:         uint8_t cmd_run[4]={0x51,0x11,0x11,0x11};
  2145  07C0  0020               	movlb	0	; select bank0
  2146  07C1  0823               	movf	main@F7126+3,w
  2147  07C2  00FA               	movwf	main@cmd_run+3
  2148  07C3  0822               	movf	main@F7126+2,w
  2149  07C4  00F9               	movwf	main@cmd_run+2
  2150  07C5  0821               	movf	main@F7126+1,w
  2151  07C6  00F8               	movwf	main@cmd_run+1
  2152  07C7  0820               	movf	main@F7126,w
  2153  07C8  00F7               	movwf	main@cmd_run
  2154  07C9                     l1080:
  2155                           
  2156                           ;main.c: 80:         L6470_sendSPI_Data(cmd_run,sizeof(cmd_run));
  2157  07C9  3004               	movlw	4
  2158  07CA  00F5               	movwf	??_main
  2159  07CB  0875               	movf	??_main,w
  2160  07CC  00F1               	movwf	L6470_sendSPI_Data@datanum
  2161  07CD  3077               	movlw	(low (main@cmd_run| 0))& (0+255)
  2162  07CE  3186  26D9  3187   	fcall	_L6470_sendSPI_Data
  2163  07D1                     l1082:
  2164  07D1  1003               	clrc
  2165  07D2  0022               	movlb	2	; select bank2
  2166  07D3  1F8D               	btfss	13,7	;volatile
  2167  07D4  1403               	setc
  2168  07D5  1803               	btfsc	3,0
  2169  07D6  2FD8               	goto	u181
  2170  07D7  2FDB               	goto	u180
  2171  07D8                     u181:
  2172  07D8  0022               	movlb	2	; select bank2
  2173  07D9  178D               	bsf	13,7	;volatile
  2174  07DA  2FDD               	goto	u194
  2175  07DB                     u180:
  2176  07DB  0022               	movlb	2	; select bank2
  2177  07DC  138D               	bcf	13,7	;volatile
  2178  07DD                     u194:
  2179  07DD                     l1084:
  2180                           
  2181                           ;main.c: 85:         _delay((unsigned long)((1000)*(8000000/4000.0)));
  2182  07DD  300B               	movlw	11
  2183  07DE  00F6               	movwf	??_main+1
  2184  07DF  3026               	movlw	38
  2185  07E0  00F5               	movwf	??_main
  2186  07E1  305E               	movlw	94
  2187  07E2                     u217:
  2188  07E2  0B89               	decfsz	9,f
  2189  07E3  2FE2               	goto	u217
  2190  07E4  0BF5               	decfsz	??_main,f
  2191  07E5  2FE2               	goto	u217
  2192  07E6  0BF6               	decfsz	??_main+1,f
  2193  07E7  2FE2               	goto	u217
  2194  07E8  2FD1               	goto	l1082
  2195  07E9  3180  2802         	ljmp	start
  2196  07EB                     __end_of_main:
  2197                           
  2198                           	psect	text1
  2199  06B3                     __ptext1:	
  2200 ;; *************** function _SYSTEM_Initialize *****************
  2201 ;; Defined at:
  2202 ;;		line 50 in file "mcc_generated_files/mcc.c"
  2203 ;; Parameters:    Size  Location     Type
  2204 ;;		None
  2205 ;; Auto vars:     Size  Location     Type
  2206 ;;		None
  2207 ;; Return value:  Size  Location     Type
  2208 ;;                  1    wreg      void 
  2209 ;; Registers used:
  2210 ;;		wreg, status,2, status,0, pclath, cstack
  2211 ;; Tracked objects:
  2212 ;;		On entry : 0/0
  2213 ;;		On exit  : 0/0
  2214 ;;		Unchanged: 0/0
  2215 ;; Data sizes:     COMMON   BANK0   BANK1   BANK2   BANK3   BANK4   BANK5   BANK6   BANK7   BANK8   BANK9  BANK10  BANK1
      +1  BANK12  BANK13  BANK14  BANK15  BANK16  BANK17  BANK18  BANK19  BANK20  BANK21  BANK22  BANK23  BANK24  BANK25
  2216 ;;      Params:         0       0       0       0       0       0       0       0       0       0       0       0       
      +0       0       0       0       0       0       0       0       0       0       0       0       0       0       0
  2217 ;;      Locals:         0       0       0       0       0       0       0       0       0       0       0       0       
      +0       0       0       0       0       0       0       0       0       0       0       0       0       0       0
  2218 ;;      Temps:          0       0       0       0       0       0       0       0       0       0       0       0       
      +0       0       0       0       0       0       0       0       0       0       0       0       0       0       0
  2219 ;;      Totals:         0       0       0       0       0       0       0       0       0       0       0       0       
      +0       0       0       0       0       0       0       0       0       0       0       0       0       0       0
  2220 ;;Total ram usage:        0 bytes
  2221 ;; Hardware stack levels used:    1
  2222 ;; Hardware stack levels required when called:    1
  2223 ;; This function calls:
  2224 ;;		_OSCILLATOR_Initialize
  2225 ;;		_PIN_MANAGER_Initialize
  2226 ;;		_PMD_Initialize
  2227 ;;		_SPI1_Initialize
  2228 ;;		_WDT_Initialize
  2229 ;; This function is called by:
  2230 ;;		_main
  2231 ;; This function uses a non-reentrant model
  2232 ;;
  2233                           
  2234                           
  2235                           ;psect for function _SYSTEM_Initialize
  2236  06B3                     _SYSTEM_Initialize:
  2237  06B3                     l1014:	
  2238                           ;incstack = 0
  2239                           ; Regs used in _SYSTEM_Initialize: [wreg+status,2+status,0+pclath+cstack]
  2240                           
  2241                           
  2242                           ;mcc_generated_files/mcc.c: 53:     PMD_Initialize();
  2243  06B3  3186  26A2  3186   	fcall	_PMD_Initialize
  2244  06B6                     l1016:
  2245                           
  2246                           ;mcc_generated_files/mcc.c: 54:     SPI1_Initialize();
  2247  06B6  3186  26C3  3186   	fcall	_SPI1_Initialize
  2248  06B9                     l1018:
  2249                           
  2250                           ;mcc_generated_files/mcc.c: 55:     PIN_MANAGER_Initialize();
  2251  06B9  3186  26FF  3186   	fcall	_PIN_MANAGER_Initialize
  2252  06BC                     l1020:
  2253                           
  2254                           ;mcc_generated_files/mcc.c: 56:     OSCILLATOR_Initialize();
  2255  06BC  3186  26AA  3186   	fcall	_OSCILLATOR_Initialize
  2256  06BF                     l1022:
  2257                           
  2258                           ;mcc_generated_files/mcc.c: 57:     WDT_Initialize();
  2259  06BF  3186  2695  3186   	fcall	_WDT_Initialize
  2260  06C2                     l93:
  2261  06C2  0008               	return
  2262  06C3                     __end_of_SYSTEM_Initialize:
  2263                           
  2264                           	psect	text2
  2265  0695                     __ptext2:	
  2266 ;; *************** function _WDT_Initialize *****************
  2267 ;; Defined at:
  2268 ;;		line 74 in file "mcc_generated_files/mcc.c"
  2269 ;; Parameters:    Size  Location     Type
  2270 ;;		None
  2271 ;; Auto vars:     Size  Location     Type
  2272 ;;		None
  2273 ;; Return value:  Size  Location     Type
  2274 ;;                  1    wreg      void 
  2275 ;; Registers used:
  2276 ;;		wreg
  2277 ;; Tracked objects:
  2278 ;;		On entry : 0/0
  2279 ;;		On exit  : 0/0
  2280 ;;		Unchanged: 0/0
  2281 ;; Data sizes:     COMMON   BANK0   BANK1   BANK2   BANK3   BANK4   BANK5   BANK6   BANK7   BANK8   BANK9  BANK10  BANK1
      +1  BANK12  BANK13  BANK14  BANK15  BANK16  BANK17  BANK18  BANK19  BANK20  BANK21  BANK22  BANK23  BANK24  BANK25
  2282 ;;      Params:         0       0       0       0       0       0       0       0       0       0       0       0       
      +0       0       0       0       0       0       0       0       0       0       0       0       0       0       0
  2283 ;;      Locals:         0       0       0       0       0       0       0       0       0       0       0       0       
      +0       0       0       0       0       0       0       0       0       0       0       0       0       0       0
  2284 ;;      Temps:          0       0       0       0       0       0       0       0       0       0       0       0       
      +0       0       0       0       0       0       0       0       0       0       0       0       0       0       0
  2285 ;;      Totals:         0       0       0       0       0       0       0       0       0       0       0       0       
      +0       0       0       0       0       0       0       0       0       0       0       0       0       0       0
  2286 ;;Total ram usage:        0 bytes
  2287 ;; Hardware stack levels used:    1
  2288 ;; This function calls:
  2289 ;;		Nothing
  2290 ;; This function is called by:
  2291 ;;		_SYSTEM_Initialize
  2292 ;; This function uses a non-reentrant model
  2293 ;;
  2294                           
  2295                           
  2296                           ;psect for function _WDT_Initialize
  2297  0695                     _WDT_Initialize:
  2298  0695                     l1010:	
  2299                           ;incstack = 0
  2300                           ; Regs used in _WDT_Initialize: [wreg]
  2301                           
  2302                           
  2303                           ;mcc_generated_files/mcc.c: 77:     WDTCON = 0x16;
  2304  0695  3016               	movlw	22
  2305  0696  0021               	movlb	1	; select bank1
  2306  0697  0097               	movwf	23	;volatile
  2307  0698                     l99:
  2308  0698  0008               	return
  2309  0699                     __end_of_WDT_Initialize:
  2310                           
  2311                           	psect	text3
  2312  06C3                     __ptext3:	
  2313 ;; *************** function _SPI1_Initialize *****************
  2314 ;; Defined at:
  2315 ;;		line 62 in file "mcc_generated_files/spi1.c"
  2316 ;; Parameters:    Size  Location     Type
  2317 ;;		None
  2318 ;; Auto vars:     Size  Location     Type
  2319 ;;		None
  2320 ;; Return value:  Size  Location     Type
  2321 ;;                  1    wreg      void 
  2322 ;; Registers used:
  2323 ;;		wreg
  2324 ;; Tracked objects:
  2325 ;;		On entry : 0/0
  2326 ;;		On exit  : 0/0
  2327 ;;		Unchanged: 0/0
  2328 ;; Data sizes:     COMMON   BANK0   BANK1   BANK2   BANK3   BANK4   BANK5   BANK6   BANK7   BANK8   BANK9  BANK10  BANK1
      +1  BANK12  BANK13  BANK14  BANK15  BANK16  BANK17  BANK18  BANK19  BANK20  BANK21  BANK22  BANK23  BANK24  BANK25
  2329 ;;      Params:         0       0       0       0       0       0       0       0       0       0       0       0       
      +0       0       0       0       0       0       0       0       0       0       0       0       0       0       0
  2330 ;;      Locals:         0       0       0       0       0       0       0       0       0       0       0       0       
      +0       0       0       0       0       0       0       0       0       0       0       0       0       0       0
  2331 ;;      Temps:          0       0       0       0       0       0       0       0       0       0       0       0       
      +0       0       0       0       0       0       0       0       0       0       0       0       0       0       0
  2332 ;;      Totals:         0       0       0       0       0       0       0       0       0       0       0       0       
      +0       0       0       0       0       0       0       0       0       0       0       0       0       0       0
  2333 ;;Total ram usage:        0 bytes
  2334 ;; Hardware stack levels used:    1
  2335 ;; This function calls:
  2336 ;;		Nothing
  2337 ;; This function is called by:
  2338 ;;		_SYSTEM_Initialize
  2339 ;; This function uses a non-reentrant model
  2340 ;;
  2341                           
  2342                           
  2343                           ;psect for function _SPI1_Initialize
  2344  06C3                     _SPI1_Initialize:
  2345  06C3                     l996:	
  2346                           ;incstack = 0
  2347                           ; Regs used in _SPI1_Initialize: [wreg]
  2348                           
  2349                           
  2350                           ;mcc_generated_files/spi1.c: 65:     SSP1CLKPPS = 18;
  2351  06C3  3012               	movlw	18
  2352  06C4  003C               	movlb	28	; select bank28
  2353  06C5  00A0               	movwf	32	;volatile
  2354                           
  2355                           ;mcc_generated_files/spi1.c: 66:     SSP1DATPPS = 2;
  2356  06C6  3002               	movlw	2
  2357  06C7  00A1               	movwf	33	;volatile
  2358                           
  2359                           ;mcc_generated_files/spi1.c: 67:     RC2PPS = 24;
  2360  06C8  3018               	movlw	24
  2361  06C9  003D               	movlb	29	; select bank29
  2362  06CA  00A2               	movwf	34	;volatile
  2363                           
  2364                           ;mcc_generated_files/spi1.c: 68:     RB4PPS = 25;
  2365  06CB  3019               	movlw	25
  2366  06CC  009C               	movwf	28	;volatile
  2367                           
  2368                           ;mcc_generated_files/spi1.c: 70:     SSP1STAT = 0x40;
  2369  06CD  3040               	movlw	64
  2370  06CE  0024               	movlb	4	; select bank4
  2371  06CF  0094               	movwf	20	;volatile
  2372                           
  2373                           ;mcc_generated_files/spi1.c: 71:     SSP1CON1 = 0x01;
  2374  06D0  3001               	movlw	1
  2375  06D1  0095               	movwf	21	;volatile
  2376                           
  2377                           ;mcc_generated_files/spi1.c: 72:     SSP1ADD = 0x01;
  2378  06D2  3001               	movlw	1
  2379  06D3  0092               	movwf	18	;volatile
  2380  06D4                     l998:
  2381                           
  2382                           ;mcc_generated_files/spi1.c: 73:     TRISCbits.TRISC2 = 0;
  2383  06D4  0021               	movlb	1	; select bank1
  2384  06D5  110E               	bcf	14,2	;volatile
  2385  06D6                     l1000:
  2386                           
  2387                           ;mcc_generated_files/spi1.c: 74:     SSP1CON1bits.SSPEN = 0;
  2388  06D6  0024               	movlb	4	; select bank4
  2389  06D7  1295               	bcf	21,5	;volatile
  2390  06D8                     l178:
  2391  06D8  0008               	return
  2392  06D9                     __end_of_SPI1_Initialize:
  2393                           
  2394                           	psect	text4
  2395  06A2                     __ptext4:	
  2396 ;; *************** function _PMD_Initialize *****************
  2397 ;; Defined at:
  2398 ;;		line 80 in file "mcc_generated_files/mcc.c"
  2399 ;; Parameters:    Size  Location     Type
  2400 ;;		None
  2401 ;; Auto vars:     Size  Location     Type
  2402 ;;		None
  2403 ;; Return value:  Size  Location     Type
  2404 ;;                  1    wreg      void 
  2405 ;; Registers used:
  2406 ;;		status,2
  2407 ;; Tracked objects:
  2408 ;;		On entry : 0/0
  2409 ;;		On exit  : 0/0
  2410 ;;		Unchanged: 0/0
  2411 ;; Data sizes:     COMMON   BANK0   BANK1   BANK2   BANK3   BANK4   BANK5   BANK6   BANK7   BANK8   BANK9  BANK10  BANK1
      +1  BANK12  BANK13  BANK14  BANK15  BANK16  BANK17  BANK18  BANK19  BANK20  BANK21  BANK22  BANK23  BANK24  BANK25
  2412 ;;      Params:         0       0       0       0       0       0       0       0       0       0       0       0       
      +0       0       0       0       0       0       0       0       0       0       0       0       0       0       0
  2413 ;;      Locals:         0       0       0       0       0       0       0       0       0       0       0       0       
      +0       0       0       0       0       0       0       0       0       0       0       0       0       0       0
  2414 ;;      Temps:          0       0       0       0       0       0       0       0       0       0       0       0       
      +0       0       0       0       0       0       0       0       0       0       0       0       0       0       0
  2415 ;;      Totals:         0       0       0       0       0       0       0       0       0       0       0       0       
      +0       0       0       0       0       0       0       0       0       0       0       0       0       0       0
  2416 ;;Total ram usage:        0 bytes
  2417 ;; Hardware stack levels used:    1
  2418 ;; This function calls:
  2419 ;;		Nothing
  2420 ;; This function is called by:
  2421 ;;		_SYSTEM_Initialize
  2422 ;; This function uses a non-reentrant model
  2423 ;;
  2424                           
  2425                           
  2426                           ;psect for function _PMD_Initialize
  2427  06A2                     _PMD_Initialize:
  2428  06A2                     l994:	
  2429                           ;incstack = 0
  2430                           ; Regs used in _PMD_Initialize: [status,2]
  2431                           
  2432                           
  2433                           ;mcc_generated_files/mcc.c: 83:     PMD0 = 0x00;
  2434  06A2  0032               	movlb	18	; select bank18
  2435  06A3  0191               	clrf	17	;volatile
  2436                           
  2437                           ;mcc_generated_files/mcc.c: 85:     PMD1 = 0x00;
  2438  06A4  0192               	clrf	18	;volatile
  2439                           
  2440                           ;mcc_generated_files/mcc.c: 87:     PMD2 = 0x00;
  2441  06A5  0193               	clrf	19	;volatile
  2442                           
  2443                           ;mcc_generated_files/mcc.c: 89:     PMD3 = 0x00;
  2444  06A6  0194               	clrf	20	;volatile
  2445                           
  2446                           ;mcc_generated_files/mcc.c: 91:     PMD4 = 0x00;
  2447  06A7  0195               	clrf	21	;volatile
  2448                           
  2449                           ;mcc_generated_files/mcc.c: 93:     PMD5 = 0x00;
  2450  06A8  0196               	clrf	22	;volatile
  2451  06A9                     l102:
  2452  06A9  0008               	return
  2453  06AA                     __end_of_PMD_Initialize:
  2454                           
  2455                           	psect	text5
  2456  06FF                     __ptext5:	
  2457 ;; *************** function _PIN_MANAGER_Initialize *****************
  2458 ;; Defined at:
  2459 ;;		line 55 in file "mcc_generated_files/pin_manager.c"
  2460 ;; Parameters:    Size  Location     Type
  2461 ;;		None
  2462 ;; Auto vars:     Size  Location     Type
  2463 ;;		None
  2464 ;; Return value:  Size  Location     Type
  2465 ;;                  1    wreg      void 
  2466 ;; Registers used:
  2467 ;;		wreg, status,2
  2468 ;; Tracked objects:
  2469 ;;		On entry : 0/0
  2470 ;;		On exit  : 0/0
  2471 ;;		Unchanged: 0/0
  2472 ;; Data sizes:     COMMON   BANK0   BANK1   BANK2   BANK3   BANK4   BANK5   BANK6   BANK7   BANK8   BANK9  BANK10  BANK1
      +1  BANK12  BANK13  BANK14  BANK15  BANK16  BANK17  BANK18  BANK19  BANK20  BANK21  BANK22  BANK23  BANK24  BANK25
  2473 ;;      Params:         0       0       0       0       0       0       0       0       0       0       0       0       
      +0       0       0       0       0       0       0       0       0       0       0       0       0       0       0
  2474 ;;      Locals:         0       0       0       0       0       0       0       0       0       0       0       0       
      +0       0       0       0       0       0       0       0       0       0       0       0       0       0       0
  2475 ;;      Temps:          0       0       0       0       0       0       0       0       0       0       0       0       
      +0       0       0       0       0       0       0       0       0       0       0       0       0       0       0
  2476 ;;      Totals:         0       0       0       0       0       0       0       0       0       0       0       0       
      +0       0       0       0       0       0       0       0       0       0       0       0       0       0       0
  2477 ;;Total ram usage:        0 bytes
  2478 ;; Hardware stack levels used:    1
  2479 ;; This function calls:
  2480 ;;		Nothing
  2481 ;; This function is called by:
  2482 ;;		_SYSTEM_Initialize
  2483 ;; This function uses a non-reentrant model
  2484 ;;
  2485                           
  2486                           
  2487                           ;psect for function _PIN_MANAGER_Initialize
  2488  06FF                     _PIN_MANAGER_Initialize:
  2489  06FF                     l976:	
  2490                           ;incstack = 0
  2491                           ; Regs used in _PIN_MANAGER_Initialize: [wreg+status,2]
  2492                           
  2493                           
  2494                           ;mcc_generated_files/pin_manager.c: 60:     LATA = 0x00;
  2495  06FF  0022               	movlb	2	; select bank2
  2496  0700  018C               	clrf	12	;volatile
  2497  0701                     l978:
  2498                           
  2499                           ;mcc_generated_files/pin_manager.c: 61:     LATB = 0x20;
  2500  0701  3020               	movlw	32
  2501  0702  008D               	movwf	13	;volatile
  2502  0703                     l980:
  2503                           
  2504                           ;mcc_generated_files/pin_manager.c: 62:     LATC = 0x00;
  2505  0703  018E               	clrf	14	;volatile
  2506                           
  2507                           ;mcc_generated_files/pin_manager.c: 67:     TRISA = 0x37;
  2508  0704  3037               	movlw	55
  2509  0705  0021               	movlb	1	; select bank1
  2510  0706  008C               	movwf	12	;volatile
  2511                           
  2512                           ;mcc_generated_files/pin_manager.c: 68:     TRISB = 0x40;
  2513  0707  3040               	movlw	64
  2514  0708  008D               	movwf	13	;volatile
  2515                           
  2516                           ;mcc_generated_files/pin_manager.c: 69:     TRISC = 0x7B;
  2517  0709  307B               	movlw	123
  2518  070A  008E               	movwf	14	;volatile
  2519                           
  2520                           ;mcc_generated_files/pin_manager.c: 74:     ANSELC = 0xFB;
  2521  070B  30FB               	movlw	251
  2522  070C  0023               	movlb	3	; select bank3
  2523  070D  008E               	movwf	14	;volatile
  2524                           
  2525                           ;mcc_generated_files/pin_manager.c: 75:     ANSELB = 0xF0;
  2526  070E  30F0               	movlw	240
  2527  070F  008D               	movwf	13	;volatile
  2528                           
  2529                           ;mcc_generated_files/pin_manager.c: 76:     ANSELA = 0x33;
  2530  0710  3033               	movlw	51
  2531  0711  008C               	movwf	12	;volatile
  2532  0712                     l982:
  2533                           
  2534                           ;mcc_generated_files/pin_manager.c: 81:     WPUB = 0x00;
  2535  0712  0024               	movlb	4	; select bank4
  2536  0713  018D               	clrf	13	;volatile
  2537  0714                     l984:
  2538                           
  2539                           ;mcc_generated_files/pin_manager.c: 82:     WPUA = 0x00;
  2540  0714  018C               	clrf	12	;volatile
  2541  0715                     l986:
  2542                           
  2543                           ;mcc_generated_files/pin_manager.c: 83:     WPUC = 0x00;
  2544  0715  018E               	clrf	14	;volatile
  2545  0716                     l988:
  2546                           
  2547                           ;mcc_generated_files/pin_manager.c: 88:     ODCONA = 0x00;
  2548  0716  0025               	movlb	5	; select bank5
  2549  0717  018C               	clrf	12	;volatile
  2550  0718                     l990:
  2551                           
  2552                           ;mcc_generated_files/pin_manager.c: 89:     ODCONB = 0x00;
  2553  0718  018D               	clrf	13	;volatile
  2554  0719                     l992:
  2555                           
  2556                           ;mcc_generated_files/pin_manager.c: 90:     ODCONC = 0x00;
  2557  0719  018E               	clrf	14	;volatile
  2558                           
  2559                           ;mcc_generated_files/pin_manager.c: 95:     SLRCONA = 0x37;
  2560  071A  3037               	movlw	55
  2561  071B  0026               	movlb	6	; select bank6
  2562  071C  008C               	movwf	12	;volatile
  2563                           
  2564                           ;mcc_generated_files/pin_manager.c: 96:     SLRCONB = 0xF0;
  2565  071D  30F0               	movlw	240
  2566  071E  008D               	movwf	13	;volatile
  2567                           
  2568                           ;mcc_generated_files/pin_manager.c: 97:     SLRCONC = 0xFF;
  2569  071F  30FF               	movlw	255
  2570  0720  008E               	movwf	14	;volatile
  2571                           
  2572                           ;mcc_generated_files/pin_manager.c: 102:     INLVLA = 0x3F;
  2573  0721  303F               	movlw	63
  2574  0722  0027               	movlb	7	; select bank7
  2575  0723  008C               	movwf	12	;volatile
  2576                           
  2577                           ;mcc_generated_files/pin_manager.c: 103:     INLVLB = 0xF0;
  2578  0724  30F0               	movlw	240
  2579  0725  008D               	movwf	13	;volatile
  2580                           
  2581                           ;mcc_generated_files/pin_manager.c: 104:     INLVLC = 0xFF;
  2582  0726  30FF               	movlw	255
  2583  0727  008E               	movwf	14	;volatile
  2584                           
  2585                           ;mcc_generated_files/pin_manager.c: 113:     SSP1CLKPPS = 0x12;
  2586  0728  3012               	movlw	18
  2587  0729  003C               	movlb	28	; select bank28
  2588  072A  00A0               	movwf	32	;volatile
  2589                           
  2590                           ;mcc_generated_files/pin_manager.c: 114:     RB4PPS = 0x19;
  2591  072B  3019               	movlw	25
  2592  072C  003D               	movlb	29	; select bank29
  2593  072D  009C               	movwf	28	;volatile
  2594                           
  2595                           ;mcc_generated_files/pin_manager.c: 115:     RC2PPS = 0x18;
  2596  072E  3018               	movlw	24
  2597  072F  00A2               	movwf	34	;volatile
  2598                           
  2599                           ;mcc_generated_files/pin_manager.c: 116:     SSP1DATPPS = 0x02;
  2600  0730  3002               	movlw	2
  2601  0731  003C               	movlb	28	; select bank28
  2602  0732  00A1               	movwf	33	;volatile
  2603  0733                     l53:
  2604  0733  0008               	return
  2605  0734                     __end_of_PIN_MANAGER_Initialize:
  2606                           
  2607                           	psect	text6
  2608  06AA                     __ptext6:	
  2609 ;; *************** function _OSCILLATOR_Initialize *****************
  2610 ;; Defined at:
  2611 ;;		line 60 in file "mcc_generated_files/mcc.c"
  2612 ;; Parameters:    Size  Location     Type
  2613 ;;		None
  2614 ;; Auto vars:     Size  Location     Type
  2615 ;;		None
  2616 ;; Return value:  Size  Location     Type
  2617 ;;                  1    wreg      void 
  2618 ;; Registers used:
  2619 ;;		wreg, status,2
  2620 ;; Tracked objects:
  2621 ;;		On entry : 0/0
  2622 ;;		On exit  : 0/0
  2623 ;;		Unchanged: 0/0
  2624 ;; Data sizes:     COMMON   BANK0   BANK1   BANK2   BANK3   BANK4   BANK5   BANK6   BANK7   BANK8   BANK9  BANK10  BANK1
      +1  BANK12  BANK13  BANK14  BANK15  BANK16  BANK17  BANK18  BANK19  BANK20  BANK21  BANK22  BANK23  BANK24  BANK25
  2625 ;;      Params:         0       0       0       0       0       0       0       0       0       0       0       0       
      +0       0       0       0       0       0       0       0       0       0       0       0       0       0       0
  2626 ;;      Locals:         0       0       0       0       0       0       0       0       0       0       0       0       
      +0       0       0       0       0       0       0       0       0       0       0       0       0       0       0
  2627 ;;      Temps:          0       0       0       0       0       0       0       0       0       0       0       0       
      +0       0       0       0       0       0       0       0       0       0       0       0       0       0       0
  2628 ;;      Totals:         0       0       0       0       0       0       0       0       0       0       0       0       
      +0       0       0       0       0       0       0       0       0       0       0       0       0       0       0
  2629 ;;Total ram usage:        0 bytes
  2630 ;; Hardware stack levels used:    1
  2631 ;; This function calls:
  2632 ;;		Nothing
  2633 ;; This function is called by:
  2634 ;;		_SYSTEM_Initialize
  2635 ;; This function uses a non-reentrant model
  2636 ;;
  2637                           
  2638                           
  2639                           ;psect for function _OSCILLATOR_Initialize
  2640  06AA                     _OSCILLATOR_Initialize:
  2641  06AA                     l1002:	
  2642                           ;incstack = 0
  2643                           ; Regs used in _OSCILLATOR_Initialize: [wreg+status,2]
  2644                           
  2645                           
  2646                           ;mcc_generated_files/mcc.c: 63:     OSCCON1 = 0x62;
  2647  06AA  3062               	movlw	98
  2648  06AB  0032               	movlb	18	; select bank18
  2649  06AC  0099               	movwf	25	;volatile
  2650  06AD                     l1004:
  2651                           
  2652                           ;mcc_generated_files/mcc.c: 65:     OSCCON3 = 0x00;
  2653  06AD  019B               	clrf	27	;volatile
  2654  06AE                     l1006:
  2655                           
  2656                           ;mcc_generated_files/mcc.c: 67:     OSCEN = 0x00;
  2657  06AE  019D               	clrf	29	;volatile
  2658                           
  2659                           ;mcc_generated_files/mcc.c: 69:     OSCFRQ = 0x07;
  2660  06AF  3007               	movlw	7
  2661  06B0  009F               	movwf	31	;volatile
  2662  06B1                     l1008:
  2663                           
  2664                           ;mcc_generated_files/mcc.c: 71:     OSCTUNE = 0x00;
  2665  06B1  019E               	clrf	30	;volatile
  2666  06B2                     l96:
  2667  06B2  0008               	return
  2668  06B3                     __end_of_OSCILLATOR_Initialize:
  2669                           
  2670                           	psect	text7
  2671  0734                     __ptext7:	
  2672 ;; *************** function _SPI1_Open *****************
  2673 ;; Defined at:
  2674 ;;		line 77 in file "mcc_generated_files/spi1.c"
  2675 ;; Parameters:    Size  Location     Type
  2676 ;;  spi1UniqueCo    1    wreg     enum E355
  2677 ;; Auto vars:     Size  Location     Type
  2678 ;;  spi1UniqueCo    1    3[COMMON] enum E355
  2679 ;; Return value:  Size  Location     Type
  2680 ;;                  1    wreg      _Bool 
  2681 ;; Registers used:
  2682 ;;		wreg, fsr0l, fsr0h, status,2, status,0, pclath
  2683 ;; Tracked objects:
  2684 ;;		On entry : 0/0
  2685 ;;		On exit  : 0/0
  2686 ;;		Unchanged: 0/0
  2687 ;; Data sizes:     COMMON   BANK0   BANK1   BANK2   BANK3   BANK4   BANK5   BANK6   BANK7   BANK8   BANK9  BANK10  BANK1
      +1  BANK12  BANK13  BANK14  BANK15  BANK16  BANK17  BANK18  BANK19  BANK20  BANK21  BANK22  BANK23  BANK24  BANK25
  2688 ;;      Params:         0       0       0       0       0       0       0       0       0       0       0       0       
      +0       0       0       0       0       0       0       0       0       0       0       0       0       0       0
  2689 ;;      Locals:         1       0       0       0       0       0       0       0       0       0       0       0       
      +0       0       0       0       0       0       0       0       0       0       0       0       0       0       0
  2690 ;;      Temps:          3       0       0       0       0       0       0       0       0       0       0       0       
      +0       0       0       0       0       0       0       0       0       0       0       0       0       0       0
  2691 ;;      Totals:         4       0       0       0       0       0       0       0       0       0       0       0       
      +0       0       0       0       0       0       0       0       0       0       0       0       0       0       0
  2692 ;;Total ram usage:        4 bytes
  2693 ;; Hardware stack levels used:    1
  2694 ;; This function calls:
  2695 ;;		Nothing
  2696 ;; This function is called by:
  2697 ;;		_main
  2698 ;; This function uses a non-reentrant model
  2699 ;;
  2700                           
  2701                           
  2702                           ;psect for function _SPI1_Open
  2703  0734                     _SPI1_Open:
  2704                           
  2705                           ;incstack = 0
  2706                           ; Regs used in _SPI1_Open: [wreg-fsr0h+status,2+status,0+pclath]
  2707                           ;SPI1_Open@spi1UniqueConfiguration stored from wreg
  2708  0734  00F3               	movwf	SPI1_Open@spi1UniqueConfiguration
  2709  0735                     l1024:
  2710                           
  2711                           ;mcc_generated_files/spi1.c: 77: _Bool SPI1_Open(spi1_modes_t spi1UniqueConfiguration);m
      +                          cc_generated_files/spi1.c: 78: {;mcc_generated_files/spi1.c: 79:     if(!SSP1CON1bits.SS
      +                          PEN)
  2712  0735  0024               	movlb	4	; select bank4
  2713  0736  1A95               	btfsc	21,5	;volatile
  2714  0737  2F39               	goto	u131
  2715  0738  2F3A               	goto	u130
  2716  0739                     u131:
  2717  0739  2F83               	goto	l1040
  2718  073A                     u130:
  2719  073A                     l1026:
  2720                           
  2721                           ;mcc_generated_files/spi1.c: 80:     {;mcc_generated_files/spi1.c: 81:         SSP1STAT 
      +                          = spi1_configuration[spi1UniqueConfiguration].stat;
  2722  073A  0873               	movf	SPI1_Open@spi1UniqueConfiguration,w
  2723  073B  00F0               	movwf	??_SPI1_Open
  2724  073C  01F1               	clrf	??_SPI1_Open+1
  2725  073D  35F0               	lslf	??_SPI1_Open,f
  2726  073E  0DF1               	rlf	??_SPI1_Open+1,f
  2727  073F  35F0               	lslf	??_SPI1_Open,f
  2728  0740  0DF1               	rlf	??_SPI1_Open+1,f
  2729  0741  3001               	movlw	low ((_spi1_configuration+1)| (0+32768))
  2730  0742  0770               	addwf	??_SPI1_Open,w
  2731  0743  0084               	movwf	4
  2732  0744  3088               	movlw	high ((_spi1_configuration+1)| (0+32768))
  2733  0745  3D71               	addwfc	??_SPI1_Open+1,w
  2734  0746  0085               	movwf	5
  2735  0747  0800               	movf	0,w	;code access
  2736  0748  0094               	movwf	20	;volatile
  2737                           
  2738                           ;mcc_generated_files/spi1.c: 82:         SSP1CON1 = spi1_configuration[spi1UniqueConfigu
      +                          ration].con1;
  2739  0749  0873               	movf	SPI1_Open@spi1UniqueConfiguration,w
  2740  074A  00F0               	movwf	??_SPI1_Open
  2741  074B  01F1               	clrf	??_SPI1_Open+1
  2742  074C  35F0               	lslf	??_SPI1_Open,f
  2743  074D  0DF1               	rlf	??_SPI1_Open+1,f
  2744  074E  35F0               	lslf	??_SPI1_Open,f
  2745  074F  0DF1               	rlf	??_SPI1_Open+1,f
  2746  0750  3000               	movlw	low (_spi1_configuration| (0+32768))
  2747  0751  0770               	addwf	??_SPI1_Open,w
  2748  0752  0084               	movwf	4
  2749  0753  3088               	movlw	high (_spi1_configuration| (0+32768))
  2750  0754  3D71               	addwfc	??_SPI1_Open+1,w
  2751  0755  0085               	movwf	5
  2752  0756  0800               	movf	0,w	;code access
  2753  0757  0095               	movwf	21	;volatile
  2754  0758                     l1028:
  2755                           
  2756                           ;mcc_generated_files/spi1.c: 83:         SSP1CON2 = 0x00;
  2757  0758  0196               	clrf	22	;volatile
  2758  0759                     l1030:
  2759                           
  2760                           ;mcc_generated_files/spi1.c: 84:         SSP1ADD = spi1_configuration[spi1UniqueConfigur
      +                          ation].add;
  2761  0759  0873               	movf	SPI1_Open@spi1UniqueConfiguration,w
  2762  075A  00F0               	movwf	??_SPI1_Open
  2763  075B  01F1               	clrf	??_SPI1_Open+1
  2764  075C  35F0               	lslf	??_SPI1_Open,f
  2765  075D  0DF1               	rlf	??_SPI1_Open+1,f
  2766  075E  35F0               	lslf	??_SPI1_Open,f
  2767  075F  0DF1               	rlf	??_SPI1_Open+1,f
  2768  0760  3002               	movlw	low ((_spi1_configuration+2)| (0+32768))
  2769  0761  0770               	addwf	??_SPI1_Open,w
  2770  0762  0084               	movwf	4
  2771  0763  3088               	movlw	high ((_spi1_configuration+2)| (0+32768))
  2772  0764  3D71               	addwfc	??_SPI1_Open+1,w
  2773  0765  0085               	movwf	5
  2774  0766  0800               	movf	0,w	;code access
  2775  0767  0092               	movwf	18	;volatile
  2776  0768                     l1032:
  2777                           
  2778                           ;mcc_generated_files/spi1.c: 85:         TRISCbits.TRISC2 = spi1_configuration[spi1Uniqu
      +                          eConfiguration].operation;
  2779  0768  0873               	movf	SPI1_Open@spi1UniqueConfiguration,w
  2780  0769  00F0               	movwf	??_SPI1_Open
  2781  076A  01F1               	clrf	??_SPI1_Open+1
  2782  076B  35F0               	lslf	??_SPI1_Open,f
  2783  076C  0DF1               	rlf	??_SPI1_Open+1,f
  2784  076D  35F0               	lslf	??_SPI1_Open,f
  2785  076E  0DF1               	rlf	??_SPI1_Open+1,f
  2786  076F  3003               	movlw	low ((_spi1_configuration+3)| (0+32768))
  2787  0770  0770               	addwf	??_SPI1_Open,w
  2788  0771  0084               	movwf	4
  2789  0772  3088               	movlw	high ((_spi1_configuration+3)| (0+32768))
  2790  0773  3D71               	addwfc	??_SPI1_Open+1,w
  2791  0774  0085               	movwf	5
  2792  0775  0800               	movf	0,w	;code access
  2793  0776  00F2               	movwf	??_SPI1_Open+2
  2794  0777  0DF2               	rlf	??_SPI1_Open+2,f
  2795  0778  0DF2               	rlf	??_SPI1_Open+2,f
  2796  0779  0021               	movlb	1	; select bank1
  2797  077A  080E               	movf	14,w	;volatile
  2798  077B  0672               	xorwf	??_SPI1_Open+2,w
  2799  077C  39FB               	andlw	-5
  2800  077D  0672               	xorwf	??_SPI1_Open+2,w
  2801  077E  008E               	movwf	14	;volatile
  2802  077F                     l1034:
  2803                           
  2804                           ;mcc_generated_files/spi1.c: 86:         SSP1CON1bits.SSPEN = 1;
  2805  077F  0024               	movlb	4	; select bank4
  2806  0780  1695               	bsf	21,5	;volatile
  2807  0781                     l1036:
  2808                           
  2809                           ;mcc_generated_files/spi1.c: 87:         return 1;
  2810  0781  3001               	movlw	1
  2811  0782  2F84               	goto	l182
  2812  0783                     l1040:
  2813                           
  2814                           ;mcc_generated_files/spi1.c: 89:     return 0;
  2815  0783  3000               	movlw	0
  2816  0784                     l182:
  2817  0784  0008               	return
  2818  0785                     __end_of_SPI1_Open:
  2819                           
  2820                           	psect	text8
  2821  06D9                     __ptext8:	
  2822 ;; *************** function _L6470_sendSPI_Data *****************
  2823 ;; Defined at:
  2824 ;;		line 91 in file "main.c"
  2825 ;; Parameters:    Size  Location     Type
  2826 ;;  data            1    wreg     PTR unsigned char 
  2827 ;;		 -> main@cmd_run(4), main@buf2(2), 
  2828 ;;  datanum         1    1[COMMON] unsigned char 
  2829 ;; Auto vars:     Size  Location     Type
  2830 ;;  data            1    3[COMMON] PTR unsigned char 
  2831 ;;		 -> main@cmd_run(4), main@buf2(2), 
  2832 ;;  bytesWritten    1    4[COMMON] unsigned char 
  2833 ;; Return value:  Size  Location     Type
  2834 ;;                  1    wreg      void 
  2835 ;; Registers used:
  2836 ;;		wreg, fsr1l, fsr1h, status,2, status,0, pclath, cstack
  2837 ;; Tracked objects:
  2838 ;;		On entry : 0/0
  2839 ;;		On exit  : 0/0
  2840 ;;		Unchanged: 0/0
  2841 ;; Data sizes:     COMMON   BANK0   BANK1   BANK2   BANK3   BANK4   BANK5   BANK6   BANK7   BANK8   BANK9  BANK10  BANK1
      +1  BANK12  BANK13  BANK14  BANK15  BANK16  BANK17  BANK18  BANK19  BANK20  BANK21  BANK22  BANK23  BANK24  BANK25
  2842 ;;      Params:         1       0       0       0       0       0       0       0       0       0       0       0       
      +0       0       0       0       0       0       0       0       0       0       0       0       0       0       0
  2843 ;;      Locals:         2       0       0       0       0       0       0       0       0       0       0       0       
      +0       0       0       0       0       0       0       0       0       0       0       0       0       0       0
  2844 ;;      Temps:          1       0       0       0       0       0       0       0       0       0       0       0       
      +0       0       0       0       0       0       0       0       0       0       0       0       0       0       0
  2845 ;;      Totals:         4       0       0       0       0       0       0       0       0       0       0       0       
      +0       0       0       0       0       0       0       0       0       0       0       0       0       0       0
  2846 ;;Total ram usage:        4 bytes
  2847 ;; Hardware stack levels used:    1
  2848 ;; Hardware stack levels required when called:    1
  2849 ;; This function calls:
  2850 ;;		_SPI1_WriteByte
  2851 ;; This function is called by:
  2852 ;;		_main
  2853 ;; This function uses a non-reentrant model
  2854 ;;
  2855                           
  2856                           
  2857                           ;psect for function _L6470_sendSPI_Data
  2858  06D9                     _L6470_sendSPI_Data:
  2859                           
  2860                           ;incstack = 0
  2861                           ; Regs used in _L6470_sendSPI_Data: [wreg+fsr1l+fsr1h+status,2+status,0+pclath+cstack]
  2862                           ;L6470_sendSPI_Data@data stored from wreg
  2863  06D9  00F3               	movwf	L6470_sendSPI_Data@data
  2864  06DA                     l1044:
  2865                           
  2866                           ;main.c: 91: void L6470_sendSPI_Data(uint8_t *data,uint8_t datanum);main.c: 92: {;main.c
      +                          : 93:     uint8_t bytesWritten = 0;
  2867  06DA  01F4               	clrf	L6470_sendSPI_Data@bytesWritten
  2868  06DB                     l1046:
  2869                           
  2870                           ;main.c: 95:     if(datanum != 0)
  2871  06DB  0871               	movf	L6470_sendSPI_Data@datanum,w
  2872  06DC  1903               	btfsc	3,2
  2873  06DD  2EDF               	goto	u141
  2874  06DE  2EE0               	goto	u140
  2875  06DF                     u141:
  2876  06DF  2EFE               	goto	l149
  2877  06E0                     u140:
  2878  06E0  2EF8               	goto	l1054
  2879  06E1                     l141:	
  2880                           ;main.c: 98:         {;main.c: 99:             do { LATBbits.LATB5 = 0; } while(0);
  2881                           
  2882  06E1  0022               	movlb	2	; select bank2
  2883  06E2  128D               	bcf	13,5	;volatile
  2884  06E3                     l1050:
  2885                           
  2886                           ;main.c: 100:             SPI1_WriteByte(data[bytesWritten]);
  2887  06E3  0874               	movf	L6470_sendSPI_Data@bytesWritten,w
  2888  06E4  0773               	addwf	L6470_sendSPI_Data@data,w
  2889  06E5  00F2               	movwf	??_L6470_sendSPI_Data
  2890  06E6  0872               	movf	??_L6470_sendSPI_Data,w
  2891  06E7  0086               	movwf	6
  2892  06E8  0187               	clrf	7
  2893  06E9  0801               	movf	1,w
  2894  06EA  3186  269D  3186   	fcall	_SPI1_WriteByte
  2895  06ED                     l143:	
  2896                           ;main.c: 101:             while(!SSP1STATbits.BF){}
  2897                           
  2898  06ED  0024               	movlb	4	; select bank4
  2899  06EE  1C14               	btfss	20,0	;volatile
  2900  06EF  2EF1               	goto	u151
  2901  06F0  2EF2               	goto	u150
  2902  06F1                     u151:
  2903  06F1  2EED               	goto	l143
  2904  06F2                     u150:
  2905  06F2                     l146:	
  2906                           ;main.c: 102:             do { LATBbits.LATB5 = 1; } while(0);
  2907                           
  2908  06F2  0022               	movlb	2	; select bank2
  2909  06F3  168D               	bsf	13,5	;volatile
  2910  06F4                     l1052:
  2911                           
  2912                           ;main.c: 104:             bytesWritten++;
  2913  06F4  3001               	movlw	1
  2914  06F5  00F2               	movwf	??_L6470_sendSPI_Data
  2915  06F6  0872               	movf	??_L6470_sendSPI_Data,w
  2916  06F7  07F4               	addwf	L6470_sendSPI_Data@bytesWritten,f
  2917  06F8                     l1054:
  2918                           
  2919                           ;main.c: 97:         while(bytesWritten < datanum)
  2920  06F8  0871               	movf	L6470_sendSPI_Data@datanum,w
  2921  06F9  0274               	subwf	L6470_sendSPI_Data@bytesWritten,w
  2922  06FA  1C03               	skipc
  2923  06FB  2EFD               	goto	u161
  2924  06FC  2EFE               	goto	u160
  2925  06FD                     u161:
  2926  06FD  2EE1               	goto	l141
  2927  06FE                     u160:
  2928  06FE                     l149:
  2929  06FE  0008               	return
  2930  06FF                     __end_of_L6470_sendSPI_Data:
  2931                           
  2932                           	psect	text9
  2933  069D                     __ptext9:	
  2934 ;; *************** function _SPI1_WriteByte *****************
  2935 ;; Defined at:
  2936 ;;		line 136 in file "mcc_generated_files/spi1.c"
  2937 ;; Parameters:    Size  Location     Type
  2938 ;;  byte            1    wreg     unsigned char 
  2939 ;; Auto vars:     Size  Location     Type
  2940 ;;  byte            1    0[COMMON] unsigned char 
  2941 ;; Return value:  Size  Location     Type
  2942 ;;                  1    wreg      void 
  2943 ;; Registers used:
  2944 ;;		wreg
  2945 ;; Tracked objects:
  2946 ;;		On entry : 0/0
  2947 ;;		On exit  : 0/0
  2948 ;;		Unchanged: 0/0
  2949 ;; Data sizes:     COMMON   BANK0   BANK1   BANK2   BANK3   BANK4   BANK5   BANK6   BANK7   BANK8   BANK9  BANK10  BANK1
      +1  BANK12  BANK13  BANK14  BANK15  BANK16  BANK17  BANK18  BANK19  BANK20  BANK21  BANK22  BANK23  BANK24  BANK25
  2950 ;;      Params:         0       0       0       0       0       0       0       0       0       0       0       0       
      +0       0       0       0       0       0       0       0       0       0       0       0       0       0       0
  2951 ;;      Locals:         1       0       0       0       0       0       0       0       0       0       0       0       
      +0       0       0       0       0       0       0       0       0       0       0       0       0       0       0
  2952 ;;      Temps:          0       0       0       0       0       0       0       0       0       0       0       0       
      +0       0       0       0       0       0       0       0       0       0       0       0       0       0       0
  2953 ;;      Totals:         1       0       0       0       0       0       0       0       0       0       0       0       
      +0       0       0       0       0       0       0       0       0       0       0       0       0       0       0
  2954 ;;Total ram usage:        1 bytes
  2955 ;; Hardware stack levels used:    1
  2956 ;; This function calls:
  2957 ;;		Nothing
  2958 ;; This function is called by:
  2959 ;;		_L6470_sendSPI_Data
  2960 ;; This function uses a non-reentrant model
  2961 ;;
  2962                           
  2963                           
  2964                           ;psect for function _SPI1_WriteByte
  2965  069D                     _SPI1_WriteByte:
  2966                           
  2967                           ;incstack = 0
  2968                           ; Regs used in _SPI1_WriteByte: [wreg]
  2969                           ;SPI1_WriteByte@byte stored from wreg
  2970  069D  00F0               	movwf	SPI1_WriteByte@byte
  2971  069E                     l1012:
  2972                           
  2973                           ;mcc_generated_files/spi1.c: 136: void SPI1_WriteByte(uint8_t byte);mcc_generated_files/
      +                          spi1.c: 137: {;mcc_generated_files/spi1.c: 138:     SSP1BUF = byte;
  2974  069E  0870               	movf	SPI1_WriteByte@byte,w
  2975  069F  0024               	movlb	4	; select bank4
  2976  06A0  0091               	movwf	17	;volatile
  2977  06A1                     l215:
  2978  06A1  0008               	return
  2979  06A2                     __end_of_SPI1_WriteByte:
  2980  007E                     btemp	set	126	;btemp
  2981  007E                     wtemp0	set	126
  2982                           
  2983                           	psect	config
  2984                           
  2985                           ;Config register CONFIG1 @ 0x8007
  2986                           ;	FEXTOSC External Oscillator mode Selection bits
  2987                           ;	FEXTOSC = OFF, Oscillator not enabled
  2988                           ;	Power-up default value for COSC bits
  2989                           ;	RSTOSC = HFINT1, HFINTOSC (1MHz)
  2990                           ;	Clock Out Enable bit
  2991                           ;	CLKOUTEN = OFF, CLKOUT function is disabled; I/O or oscillator function on OSC2
  2992                           ;	Clock Switch Enable bit
  2993                           ;	CSWEN = ON, Writing to NOSC and NDIV is allowed
  2994                           ;	Fail-Safe Clock Monitor Enable
  2995                           ;	FCMEN = ON, Fail-Safe Clock Monitor is enabled
  2996  8007                     	org	32775
  2997  8007  3FEC               	dw	16364
  2998                           
  2999                           ;Config register CONFIG2 @ 0x8008
  3000                           ;	Master Clear Enable bit
  3001                           ;	MCLRE = ON, MCLR/VPP pin function is MCLR; Weak pull-up enabled
  3002                           ;	Power-up Timer Enable bit
  3003                           ;	PWRTE = OFF, PWRT disabled
  3004                           ;	Watchdog Timer Enable bits
  3005                           ;	WDTE = OFF, WDT disabled; SWDTEN is ignored
  3006                           ;	Low-power BOR enable bit
  3007                           ;	LPBOREN = OFF, ULPBOR disabled
  3008                           ;	Brown-out Reset Enable bits
  3009                           ;	BOREN = ON, Brown-out Reset enabled, SBOREN bit ignored
  3010                           ;	Brown-out Reset Voltage selection bit
  3011                           ;	BORV = LOW, Brown-out voltage (Vbor) set to 2.45V
  3012                           ;	PPSLOCK bit One-Way Set Enable bit
  3013                           ;	PPS1WAY = ON, The PPSLOCK bit can be cleared and set only once; PPS registers remain l
      +                          ocked after one clear/set cycle
  3014                           ;	Stack Overflow/Underflow Reset Enable bit
  3015                           ;	STVREN = ON, Stack Overflow or Underflow will cause a Reset
  3016                           ;	Debugger enable bit
  3017                           ;	DEBUG = OFF, Background debugger disabled
  3018  8008                     	org	32776
  3019  8008  3FF3               	dw	16371
  3020                           
  3021                           ;Config register CONFIG3 @ 0x8009
  3022                           ;	User NVM self-write protection bits
  3023                           ;	WRT = OFF, Write protection off
  3024                           ;	Low Voltage Programming Enable bit
  3025                           ;	LVP = ON, Low Voltage programming enabled. MCLR/VPP pin function is MCLR. MCLRE config
      +                          uration bit is ignored.
  3026  8009                     	org	32777
  3027  8009  3FFF               	dw	16383
  3028                           
  3029                           ;Config register CONFIG4 @ 0x800A
  3030                           ;	User NVM Program Memory Code Protection bit
  3031                           ;	CP = OFF, User NVM code protection disabled
  3032                           ;	Data NVM Memory Code Protection bit
  3033                           ;	CPD = OFF, Data NVM code protection disabled
  3034  800A                     	org	32778
  3035  800A  3FFF               	dw	16383

Data Sizes:
    Strings     0
    Constant    4
    Data        4
    BSS         2
    Persistent  32
    Stack       0

Auto Spaces:
    Space          Size  Autos    Used
    COMMON           14     13      13
    BANK0            80      0       6
    BANK1            80      0       0
    BANK2            80      0       0
    BANK3            80      0       0
    BANK4            80      0       0
    BANK5            80      0       0
    BANK6            80      0       0
    BANK7            80      0       0
    BANK8            80      0       0
    BANK9            80      0       0
    BANK10           80      0       0
    BANK11           80      0       0
    BANK12           80      0       0
    BANK13           80      0       0
    BANK14           80      0       0
    BANK15           80      0       0
    BANK16           80      0       0
    BANK17           80      0       0
    BANK18           80      0       0
    BANK19           80      0       0
    BANK20           80      0       0
    BANK21           80      0       0
    BANK22           80      0       0
    BANK23           80      0       0
    BANK24           80      0       0
    BANK25           32      0       0

Pointer List with Targets:

    L6470_sendSPI_Data@data	PTR unsigned char  size(1) Largest target is 4
		 -> main@cmd_run(COMMON[4]), main@buf2(COMMON[2]), 


Critical Paths under _main in COMMON

    _main->_L6470_sendSPI_Data
    _L6470_sendSPI_Data->_SPI1_WriteByte

Critical Paths under _main in BANK0

    None.

Critical Paths under _main in BANK1

    None.

Critical Paths under _main in BANK2

    None.

Critical Paths under _main in BANK3

    None.

Critical Paths under _main in BANK4

    None.

Critical Paths under _main in BANK5

    None.

Critical Paths under _main in BANK6

    None.

Critical Paths under _main in BANK7

    None.

Critical Paths under _main in BANK8

    None.

Critical Paths under _main in BANK9

    None.

Critical Paths under _main in BANK10

    None.

Critical Paths under _main in BANK11

    None.

Critical Paths under _main in BANK12

    None.

Critical Paths under _main in BANK13

    None.

Critical Paths under _main in BANK14

    None.

Critical Paths under _main in BANK15

    None.

Critical Paths under _main in BANK16

    None.

Critical Paths under _main in BANK17

    None.

Critical Paths under _main in BANK18

    None.

Critical Paths under _main in BANK19

    None.

Critical Paths under _main in BANK20

    None.

Critical Paths under _main in BANK21

    None.

Critical Paths under _main in BANK22

    None.

Critical Paths under _main in BANK23

    None.

Critical Paths under _main in BANK24

    None.

Critical Paths under _main in BANK25

    None.

Call Graph Tables:

 ---------------------------------------------------------------------------------
 (Depth) Function   	        Calls       Base Space   Used Autos Params    Refs
 ---------------------------------------------------------------------------------
 (0) _main                                                 8     8      0     669
                                              5 COMMON     8     8      0
                 _L6470_sendSPI_Data
                          _SPI1_Open
                  _SYSTEM_Initialize
 ---------------------------------------------------------------------------------
 (1) _SYSTEM_Initialize                                    0     0      0       0
              _OSCILLATOR_Initialize
             _PIN_MANAGER_Initialize
                     _PMD_Initialize
                    _SPI1_Initialize
                     _WDT_Initialize
 ---------------------------------------------------------------------------------
 (2) _WDT_Initialize                                       0     0      0       0
 ---------------------------------------------------------------------------------
 (2) _SPI1_Initialize                                      0     0      0       0
 ---------------------------------------------------------------------------------
 (2) _PMD_Initialize                                       0     0      0       0
 ---------------------------------------------------------------------------------
 (2) _PIN_MANAGER_Initialize                               0     0      0       0
 ---------------------------------------------------------------------------------
 (2) _OSCILLATOR_Initialize                                0     0      0       0
 ---------------------------------------------------------------------------------
 (1) _SPI1_Open                                            4     4      0      88
                                              0 COMMON     4     4      0
 ---------------------------------------------------------------------------------
 (1) _L6470_sendSPI_Data                                   4     3      1     461
                                              1 COMMON     4     3      1
                     _SPI1_WriteByte
 ---------------------------------------------------------------------------------
 (2) _SPI1_WriteByte                                       1     1      0      22
                                              0 COMMON     1     1      0
 ---------------------------------------------------------------------------------
 Estimated maximum stack depth 2
 ---------------------------------------------------------------------------------

 Call Graph Graphs:

 _main (ROOT)
   _L6470_sendSPI_Data
     _SPI1_WriteByte
   _SPI1_Open
   _SYSTEM_Initialize
     _OSCILLATOR_Initialize
     _PIN_MANAGER_Initialize
     _PMD_Initialize
     _SPI1_Initialize
     _WDT_Initialize

 Address spaces:
Name               Size   Autos  Total    Cost      Usage
BIGRAM             7F0      0       0       0        0.0%
EEDATA             100      0       0       0        0.0%
NULL                 0      0       0       0        0.0%
CODE                 0      0       0       0        0.0%
BITCOMMON            E      0       0       1        0.0%
BITSFR0              0      0       0       1        0.0%
SFR0                 0      0       0       1        0.0%
COMMON               E      D       D       2       92.9%
BITSFR1              0      0       0       2        0.0%
SFR1                 0      0       0       2        0.0%
BITSFR2              0      0       0       3        0.0%
SFR2                 0      0       0       3        0.0%
STACK                0      0       0       3        0.0%
BITBANK0            50      0       0       4        0.0%
BITSFR3              0      0       0       4        0.0%
SFR3                 0      0       0       4        0.0%
BANK0               50      0       6       5        7.5%
BITSFR4              0      0       0       5        0.0%
SFR4                 0      0       0       5        0.0%
BITBANK1            50      0       0       6        0.0%
BITSFR5              0      0       0       6        0.0%
SFR5                 0      0       0       6        0.0%
BANK1               50      0       0       7        0.0%
BITSFR6              0      0       0       7        0.0%
SFR6                 0      0       0       7        0.0%
BITBANK2            50      0       0       8        0.0%
BITSFR7              0      0       0       8        0.0%
SFR7                 0      0       0       8        0.0%
BANK2               50      0       0       9        0.0%
BITSFR8              0      0       0       9        0.0%
SFR8                 0      0       0       9        0.0%
BITBANK3            50      0       0      10        0.0%
BITSFR9              0      0       0      10        0.0%
SFR9                 0      0       0      10        0.0%
BANK3               50      0       0      11        0.0%
BITSFR10             0      0       0      11        0.0%
SFR10                0      0       0      11        0.0%
BITBANK4            50      0       0      12        0.0%
BITSFR11             0      0       0      12        0.0%
SFR11                0      0       0      12        0.0%
BANK4               50      0       0      13        0.0%
BITSFR12             0      0       0      13        0.0%
SFR12                0      0       0      13        0.0%
BITSFR13             0      0       0      14        0.0%
SFR13                0      0       0      14        0.0%
ABS                  0      0      13      14        0.0%
BITBANK5            50      0       0      15        0.0%
BITSFR14             0      0       0      15        0.0%
SFR14                0      0       0      15        0.0%
BANK5               50      0       0      16        0.0%
BITSFR15             0      0       0      16        0.0%
SFR15                0      0       0      16        0.0%
BITBANK6            50      0       0      17        0.0%
BITSFR16             0      0       0      17        0.0%
SFR16                0      0       0      17        0.0%
BANK6               50      0       0      18        0.0%
BITSFR17             0      0       0      18        0.0%
SFR17                0      0       0      18        0.0%
BITBANK7            50      0       0      19        0.0%
BITSFR18             0      0       0      19        0.0%
SFR18                0      0       0      19        0.0%
BANK7               50      0       0      20        0.0%
BITSFR19             0      0       0      20        0.0%
SFR19                0      0       0      20        0.0%
BITBANK8            50      0       0      21        0.0%
BITSFR20             0      0       0      21        0.0%
SFR20                0      0       0      21        0.0%
BANK8               50      0       0      22        0.0%
BITSFR21             0      0       0      22        0.0%
SFR21                0      0       0      22        0.0%
BITBANK9            50      0       0      23        0.0%
BITSFR22             0      0       0      23        0.0%
SFR22                0      0       0      23        0.0%
BANK9               50      0       0      24        0.0%
BITSFR23             0      0       0      24        0.0%
SFR23                0      0       0      24        0.0%
BITBANK10           50      0       0      25        0.0%
BITSFR24             0      0       0      25        0.0%
SFR24                0      0       0      25        0.0%
BANK10              50      0       0      26        0.0%
BITSFR25             0      0       0      26        0.0%
SFR25                0      0       0      26        0.0%
BITBANK11           50      0       0      27        0.0%
BITSFR26             0      0       0      27        0.0%
SFR26                0      0       0      27        0.0%
BITSFR27             0      0       0      28        0.0%
SFR27                0      0       0      28        0.0%
DATA                 0      0      13      28        0.0%
BANK11              50      0       0      29        0.0%
BITSFR28             0      0       0      29        0.0%
SFR28                0      0       0      29        0.0%
BITBANK12           50      0       0      30        0.0%
BITSFR29             0      0       0      30        0.0%
SFR29                0      0       0      30        0.0%
BANK12              50      0       0      31        0.0%
BITSFR30             0      0       0      31        0.0%
SFR30                0      0       0      31        0.0%
BITBANK13           50      0       0      32        0.0%
BITSFR31             0      0       0      32        0.0%
SFR31                0      0       0      32        0.0%
BANK13              50      0       0      33        0.0%
BITBANK14           50      0       0      34        0.0%
BANK14              50      0       0      35        0.0%
BITBANK15           50      0       0      36        0.0%
BANK15              50      0       0      37        0.0%
BITBANK16           50      0       0      38        0.0%
BANK16              50      0       0      39        0.0%
BITBANK17           50      0       0      40        0.0%
BANK17              50      0       0      41        0.0%
BITBANK18           50      0       0      42        0.0%
BANK18              50      0       0      43        0.0%
BITBANK19           50      0       0      44        0.0%
BANK19              50      0       0      45        0.0%
BITBANK20           50      0       0      46        0.0%
BANK20              50      0       0      47        0.0%
BITBANK21           50      0       0      48        0.0%
BANK21              50      0       0      49        0.0%
BITBANK22           50      0       0      50        0.0%
BANK22              50      0       0      51        0.0%
BITBANK23           50      0       0      52        0.0%
BANK23              50      0       0      53        0.0%
BITBANK24           50      0       0      54        0.0%
BANK24              50      0       0      55        0.0%
BITBANK25           20      0       0      56        0.0%
BANK25              20      0       0      57        0.0%


Microchip Technology PIC Macro Assembler V2.31 build 20201012212115 
Symbol Table                                                                                   Fri Oct 29 13:25:50 2021

              SPI1_WriteByte@byte 0070                                l53 0733                                l93 06C2  
                              l96 06B2                                l99 0698                               l102 06A9  
                             l141 06E1                               l215 06A1                               l143 06ED  
                             l146 06F2                               l149 06FE                               l182 0784  
                             l178 06D8                               l980 0703                               l990 0718  
                             l982 0712                               l992 0719                               l984 0714  
                             l976 06FF                               l986 0715                               l978 0701  
                             l994 06A2                               l988 0716                               l996 06C3  
                             l998 06D4                               u130 073A                               u131 0739  
                             u140 06E0                               u141 06DF                               u150 06F2  
                             u151 06F1                               u207 078D                               u160 06FE  
                             u161 06FD                               u217 07E2                               u170 079E  
                             u171 079D                               u180 07DB                               u181 07D8  
                             u194 07DD           __size_of_PMD_Initialize 0008                               wreg 0009  
                     main@cmd_run 0077                              l1000 06D6                              l1002 06AA  
                            l1010 0695                              l1012 069E                              l1004 06AD  
                            l1020 06BC                              l1030 0759                              l1006 06AE  
                            l1022 06BF                              l1014 06B3                              l1032 0768  
                            l1040 0783                              l1024 0735                              l1008 06B1  
                            l1016 06B6                              l1050 06E3                              l1034 077F  
                            l1026 073A                              l1018 06B9                              l1052 06F4  
                            l1044 06DA                              l1036 0781                              l1028 0758  
                            l1060 0793                              l1054 06F8                              l1046 06DB  
                            l1070 07A8                              l1062 0795                              l1080 07C9  
                            l1072 07B0                              l1064 079E                              l1056 0785  
                            l1074 07B4                              l1066 07A0                              l1082 07D1  
                            l1058 0788                              l1084 07DD                              l1076 07B8  
                            l1068 07A4                              l1078 07C0                              _LATA 010C  
                            _LATB 010D                              _LATC 010E                              _PMD0 0911  
                            _PMD1 0912                              _PMD2 0913                              _PMD3 0914  
                            _PMD4 0915                              _PMD5 0916                              _WPUA 020C  
                            _WPUB 020D                              _WPUC 020E                              _main 0785  
                            fsr0h 0005                              fsr1h 0007                              indf0 0000  
                            fsr0l 0004                              indf1 0001                              fsr1l 0006  
                            btemp 007E                              start 0002    __size_of_OSCILLATOR_Initialize 0009  
   __end_of_OSCILLATOR_Initialize 06B3                             ?_main 0070  SPI1_Open@spi1UniqueConfiguration 0073  
                           _OSCEN 091D                             _TRISA 008C                             _TRISB 008D  
                           _TRISC 008E                __size_of_SPI1_Open 0051                    _WDT_Initialize 0695  
                           status 0003                             wtemp0 007E          __size_of_SPI1_Initialize 0016  
         __size_of_SPI1_WriteByte 0005                   __initialization 07EB                      __end_of_main 07EB  
          L6470_sendSPI_Data@data 0073                _L6470_sendSPI_Data 06D9                            ??_main 0075  
          __end_of_WDT_Initialize 0699               ?_L6470_sendSPI_Data 0071                            _ANSELA 018C  
                          _ANSELB 018D                            _ANSELC 018E                            _RB4PPS 0E9C  
                          _RC2PPS 0EA2                            _ODCONA 028C                            _ODCONB 028D  
                          _ODCONC 028E                            _INLVLA 038C                            _INLVLB 038D  
                          _INLVLC 038E                            _OSCFRQ 091F                            _WDTCON 0097  
               __end_of_SPI1_Open 0785              ??_L6470_sendSPI_Data 0072                    _PMD_Initialize 06A2  
                 ?_WDT_Initialize 0070                 _SYSTEM_Initialize 06B3           __end_of__initialization 07FD  
              ?_SYSTEM_Initialize 0070    L6470_sendSPI_Data@bytesWritten 0074                    __pcstackCOMMON 0070  
                    __pidataBANK0 0699               ??_SYSTEM_Initialize 0070                 ??_SPI1_Initialize 0070  
          __end_of_PMD_Initialize 06AA                _spi1_configuration 0800         __end_of_SYSTEM_Initialize 06C3  
                      __pbssBANK0 0024                    _SPI1_WriteByte 069D                        __pmaintext 0785  
                 ?_PMD_Initialize 0070                           _OSCCON1 0919                           _OSCCON3 091B  
                         _OSCTUNE 091E                           _SSP1ADD 0212                           _SLRCONA 030C  
                         _SLRCONB 030D                           _SLRCONC 030E                           _SSP1BUF 0211  
          __end_of_SPI1_WriteByte 06A2                           __ptext1 06B3                           __ptext2 0695  
                         __ptext3 06C3                           __ptext4 06A2                           __ptext5 06FF  
                         __ptext6 06AA                           __ptext7 0734                           __ptext8 06D9  
                         __ptext9 069D             _OSCILLATOR_Initialize 06AA          ??_PIN_MANAGER_Initialize 0070  
      __size_of_SYSTEM_Initialize 0010              end_of_initialization 07FD                   ?_SPI1_WriteByte 0070  
                       _SPI1_Open 0734                  ??_WDT_Initialize 0070                         _TRISCbits 008E  
                 _SPI1_Initialize 06C3       __size_of_L6470_sendSPI_Data 0026                        ?_SPI1_Open 0070  
          ?_OSCILLATOR_Initialize 0070               start_initialization 07EB   __size_of_PIN_MANAGER_Initialize 0035  
                ??_PMD_Initialize 0070                       __pdataBANK0 0020                         ___latbits 0003  
         __end_of_SPI1_Initialize 06D9            _PIN_MANAGER_Initialize 06FF                       ??_SPI1_Open 0070  
       L6470_sendSPI_Data@datanum 0071                  ??_SPI1_WriteByte 0070                          _LATBbits 010D  
                        _LATCbits 010E                          _PIR1bits 0011                         main@F7124 0024  
                       main@F7126 0020                          _SSP1CON1 0215                          _SSP1CON2 0216  
                        _SSP1STAT 0214                  ?_SPI1_Initialize 0070           ??_OSCILLATOR_Initialize 0070  
                    _SSP1CON1bits 0215                     __size_of_main 0066        __end_of_L6470_sendSPI_Data 06FF  
                        main@buf2 007B                      _SSP1STATbits 0214           __size_of_WDT_Initialize 0004  
         ?_PIN_MANAGER_Initialize 0070                     __pstringtext1 0800                        _SSP1DATPPS 0E21  
                      _SSP1CLKPPS 0E20    __end_of_PIN_MANAGER_Initialize 0734        __end_of_spi1_configuration 0804  
