:020000040000FA
:08000000803102288731EB2F4B
:100D2A00163021009700080051341134113411345F
:100D3A00F00070082400910008003200910192012D
:100D4A0093019401950196010800623032009900DE
:100D5A009B019D0107309F009E0108008631A22653
:100D6A0086318631C32686318631FF268631863121
:100D7A00AA268631863195268631080012303C0033
:100D8A00A0000230A10018303D00A20019309C00DA
:100D9A004030240094000130950001309200210077
:100DAA000E11240095120800F300F40171080319CA
:100DBA00DF2EE02EFE2EF82E22008D127408730705
:100DCA00F200720886008701010886319D26863165
:100DDA002400141CF12EF22EED2E22008D16013065
:100DEA00F2007208F40771087402031CFD2EFE2E2D
:100DFA00E12E080022008C0120308D008E01373050
:100E0A0021008C0040308D007B308E00FB302300A7
:100E1A008E00F0308D0033308C0024008D018C015F
:100E2A008E0125008C018D018E01373026008C0041
:100E3A00F0308D00FF308E003F3027008C00F030FC
:100E4A008D00FF308E0012303C00A00019303D00AA
:100E5A009C001830A20002303C00A1000800F300F8
:100E6A002400951A392F3A2F832F7308F000F101C5
:100E7A00F035F10DF035F10D01307007840088303E
:100E8A00713D8500000894007308F000F101F03507
:100E9A00F10DF035F10D0030700784008830713D96
:100EAA0085000008950096017308F000F101F035FD
:100EBA00F10DF035F10D0230700784008830713D74
:100ECA008500000892007308F000F101F035F10D79
:100EDA00F035F10D0330700784008830713D8500CC
:100EEA000008F200F20DF20D21000E087206FB391D
:100EFA0072068E00240095160130842F00300800F7
:100F0A008631B32687310630F6001330F500AE304D
:100F1A00890B8D2FF50B8D2FF60B8D2F22008E1737
:100F2A000030873134278731003A03199D2F9E2FCD
:100F3A00D12FFB01FC010930F5007508FB003030A8
:100F4A00F5007508FC000230F5007508F1007B30E9
:100F5A008631D92687310A30F5007508FB00FF3043
:100F6A00F5007508FC000230F5007508F1007B30C9
:100F7A008631D926873120002308FA002208F90091
:100F8A002108F8002008F7000430F5007508F10080
:100F9A0077308631D9268731031022008D1F03143A
:100FAA000318D82FDB2F22008D17DD2F22008D1377
:100FBA000B30F6002630F5005E30890BE22FF50B78
:100FCA00E22FF60BE22FD12F8031022886319926A3
:100FDA008731A00086319A268731A10086319B2667
:100FEA008731A20086319C268731A300A401A5017E
:0E0FFA0020008731852F01344034013400344B
:020000040001F9
:08000E00EC3FF33FFF3FFF3F11
:00000001FF
